{
  "contractName": "Bookfood",
  "abi": [
    {
      "inputs": [
        {
          "internalType": "address payable",
          "name": "_beneficiary",
          "type": "address"
        }
      ],
      "stateMutability": "nonpayable",
      "type": "constructor"
    },
    {
      "anonymous": false,
      "inputs": [
        {
          "indexed": true,
          "internalType": "address",
          "name": "sender",
          "type": "address"
        },
        {
          "indexed": true,
          "internalType": "address",
          "name": "receiver",
          "type": "address"
        },
        {
          "indexed": false,
          "internalType": "string",
          "name": "message",
          "type": "string"
        }
      ],
      "name": "MessageSent",
      "type": "event"
    },
    {
      "anonymous": false,
      "inputs": [
        {
          "indexed": false,
          "internalType": "uint256",
          "name": "orderId",
          "type": "uint256"
        },
        {
          "indexed": true,
          "internalType": "address",
          "name": "customer",
          "type": "address"
        },
        {
          "indexed": false,
          "internalType": "enum Bookfood.OrderStatus",
          "name": "status",
          "type": "uint8"
        }
      ],
      "name": "OrderStatusUpdated",
      "type": "event"
    },
    {
      "inputs": [],
      "name": "beneficiary",
      "outputs": [
        {
          "internalType": "address payable",
          "name": "",
          "type": "address"
        }
      ],
      "stateMutability": "view",
      "type": "function"
    },
    {
      "inputs": [
        {
          "internalType": "uint256",
          "name": "",
          "type": "uint256"
        }
      ],
      "name": "categories",
      "outputs": [
        {
          "internalType": "uint256",
          "name": "id",
          "type": "uint256"
        },
        {
          "internalType": "string",
          "name": "name",
          "type": "string"
        }
      ],
      "stateMutability": "view",
      "type": "function"
    },
    {
      "inputs": [
        {
          "internalType": "uint256",
          "name": "",
          "type": "uint256"
        }
      ],
      "name": "foods",
      "outputs": [
        {
          "internalType": "uint256",
          "name": "id",
          "type": "uint256"
        },
        {
          "internalType": "string",
          "name": "name",
          "type": "string"
        },
        {
          "internalType": "string",
          "name": "img",
          "type": "string"
        },
        {
          "internalType": "uint256",
          "name": "restaurantId",
          "type": "uint256"
        },
        {
          "internalType": "uint256",
          "name": "categoryId",
          "type": "uint256"
        },
        {
          "internalType": "uint256",
          "name": "price",
          "type": "uint256"
        },
        {
          "internalType": "bool",
          "name": "isVegan",
          "type": "bool"
        },
        {
          "internalType": "bool",
          "name": "isGlutenFree",
          "type": "bool"
        },
        {
          "internalType": "uint256",
          "name": "totalStars",
          "type": "uint256"
        },
        {
          "internalType": "uint256",
          "name": "totalRatings",
          "type": "uint256"
        }
      ],
      "stateMutability": "view",
      "type": "function"
    },
    {
      "inputs": [
        {
          "internalType": "uint256",
          "name": "",
          "type": "uint256"
        }
      ],
      "name": "orderDetailCount",
      "outputs": [
        {
          "internalType": "uint256",
          "name": "",
          "type": "uint256"
        }
      ],
      "stateMutability": "view",
      "type": "function"
    },
    {
      "inputs": [
        {
          "internalType": "uint256",
          "name": "",
          "type": "uint256"
        },
        {
          "internalType": "uint256",
          "name": "",
          "type": "uint256"
        }
      ],
      "name": "orderDetails",
      "outputs": [
        {
          "internalType": "uint256",
          "name": "foodId",
          "type": "uint256"
        },
        {
          "internalType": "uint256",
          "name": "quantity",
          "type": "uint256"
        },
        {
          "internalType": "uint256",
          "name": "price",
          "type": "uint256"
        }
      ],
      "stateMutability": "view",
      "type": "function"
    },
    {
      "inputs": [
        {
          "internalType": "uint256",
          "name": "",
          "type": "uint256"
        }
      ],
      "name": "orders",
      "outputs": [
        {
          "internalType": "uint256",
          "name": "id",
          "type": "uint256"
        },
        {
          "internalType": "uint256",
          "name": "restaurantId",
          "type": "uint256"
        },
        {
          "internalType": "address",
          "name": "customer",
          "type": "address"
        },
        {
          "internalType": "uint256",
          "name": "discount",
          "type": "uint256"
        },
        {
          "internalType": "uint256",
          "name": "totalPrice",
          "type": "uint256"
        },
        {
          "internalType": "enum Bookfood.OrderStatus",
          "name": "status",
          "type": "uint8"
        },
        {
          "internalType": "enum Bookfood.Payment",
          "name": "payment",
          "type": "uint8"
        },
        {
          "internalType": "bool",
          "name": "isReviewed",
          "type": "bool"
        },
        {
          "internalType": "bool",
          "name": "isPay",
          "type": "bool"
        },
        {
          "internalType": "string",
          "name": "note",
          "type": "string"
        }
      ],
      "stateMutability": "view",
      "type": "function"
    },
    {
      "inputs": [
        {
          "internalType": "address",
          "name": "",
          "type": "address"
        }
      ],
      "name": "points",
      "outputs": [
        {
          "internalType": "uint256",
          "name": "",
          "type": "uint256"
        }
      ],
      "stateMutability": "view",
      "type": "function"
    },
    {
      "inputs": [
        {
          "internalType": "uint256",
          "name": "",
          "type": "uint256"
        }
      ],
      "name": "ratingCountPerFood",
      "outputs": [
        {
          "internalType": "uint256",
          "name": "",
          "type": "uint256"
        }
      ],
      "stateMutability": "view",
      "type": "function"
    },
    {
      "inputs": [
        {
          "internalType": "uint256",
          "name": "",
          "type": "uint256"
        },
        {
          "internalType": "uint256",
          "name": "",
          "type": "uint256"
        }
      ],
      "name": "ratings",
      "outputs": [
        {
          "internalType": "uint256",
          "name": "id",
          "type": "uint256"
        },
        {
          "internalType": "uint256",
          "name": "foodId",
          "type": "uint256"
        },
        {
          "internalType": "address",
          "name": "user",
          "type": "address"
        },
        {
          "internalType": "string",
          "name": "review",
          "type": "string"
        },
        {
          "internalType": "uint256",
          "name": "stars",
          "type": "uint256"
        }
      ],
      "stateMutability": "view",
      "type": "function"
    },
    {
      "inputs": [
        {
          "internalType": "uint256",
          "name": "",
          "type": "uint256"
        }
      ],
      "name": "restaurants",
      "outputs": [
        {
          "internalType": "uint256",
          "name": "id",
          "type": "uint256"
        },
        {
          "internalType": "string",
          "name": "name",
          "type": "string"
        },
        {
          "internalType": "string",
          "name": "houseNumber",
          "type": "string"
        },
        {
          "internalType": "string",
          "name": "street",
          "type": "string"
        },
        {
          "internalType": "string",
          "name": "ward",
          "type": "string"
        },
        {
          "internalType": "string",
          "name": "district",
          "type": "string"
        },
        {
          "internalType": "string",
          "name": "city",
          "type": "string"
        },
        {
          "internalType": "address",
          "name": "owner",
          "type": "address"
        }
      ],
      "stateMutability": "view",
      "type": "function"
    },
    {
      "inputs": [
        {
          "internalType": "uint256",
          "name": "_orderId",
          "type": "uint256"
        }
      ],
      "name": "processPayment",
      "outputs": [],
      "stateMutability": "payable",
      "type": "function"
    },
    {
      "inputs": [
        {
          "internalType": "string",
          "name": "_name",
          "type": "string"
        },
        {
          "internalType": "string",
          "name": "_houseNumber",
          "type": "string"
        },
        {
          "internalType": "string",
          "name": "_street",
          "type": "string"
        },
        {
          "internalType": "string",
          "name": "_ward",
          "type": "string"
        },
        {
          "internalType": "string",
          "name": "_district",
          "type": "string"
        },
        {
          "internalType": "string",
          "name": "_city",
          "type": "string"
        },
        {
          "internalType": "address",
          "name": "_owner",
          "type": "address"
        }
      ],
      "name": "addRestaurant",
      "outputs": [],
      "stateMutability": "nonpayable",
      "type": "function"
    },
    {
      "inputs": [
        {
          "internalType": "string",
          "name": "_name",
          "type": "string"
        }
      ],
      "name": "addCategory",
      "outputs": [],
      "stateMutability": "nonpayable",
      "type": "function"
    },
    {
      "inputs": [
        {
          "internalType": "string",
          "name": "_name",
          "type": "string"
        },
        {
          "internalType": "uint256",
          "name": "_restaurantId",
          "type": "uint256"
        },
        {
          "internalType": "uint256",
          "name": "_categoryId",
          "type": "uint256"
        },
        {
          "internalType": "uint256",
          "name": "_price",
          "type": "uint256"
        },
        {
          "internalType": "bool",
          "name": "_isVegan",
          "type": "bool"
        },
        {
          "internalType": "bool",
          "name": "_isGlutenFree",
          "type": "bool"
        },
        {
          "internalType": "string",
          "name": "img",
          "type": "string"
        }
      ],
      "name": "addFood",
      "outputs": [],
      "stateMutability": "nonpayable",
      "type": "function"
    },
    {
      "inputs": [
        {
          "internalType": "uint256",
          "name": "_idOrder",
          "type": "uint256"
        },
        {
          "internalType": "string[]",
          "name": "_reviews",
          "type": "string[]"
        },
        {
          "internalType": "uint256[]",
          "name": "_stars",
          "type": "uint256[]"
        }
      ],
      "name": "addRating",
      "outputs": [],
      "stateMutability": "nonpayable",
      "type": "function"
    },
    {
      "inputs": [
        {
          "internalType": "enum Bookfood.Payment",
          "name": "_payment",
          "type": "uint8"
        },
        {
          "internalType": "uint256[]",
          "name": "_foodIds",
          "type": "uint256[]"
        },
        {
          "internalType": "uint256[]",
          "name": "_quantities",
          "type": "uint256[]"
        },
        {
          "internalType": "bool",
          "name": "UsePoint",
          "type": "bool"
        },
        {
          "internalType": "string",
          "name": "note",
          "type": "string"
        }
      ],
      "name": "placeOrder",
      "outputs": [],
      "stateMutability": "nonpayable",
      "type": "function"
    },
    {
      "inputs": [
        {
          "internalType": "uint256",
          "name": "_orderId",
          "type": "uint256"
        },
        {
          "internalType": "enum Bookfood.OrderStatus",
          "name": "_status",
          "type": "uint8"
        }
      ],
      "name": "updateOrderStatus",
      "outputs": [],
      "stateMutability": "nonpayable",
      "type": "function"
    },
    {
      "inputs": [
        {
          "internalType": "address",
          "name": "_receiver",
          "type": "address"
        },
        {
          "internalType": "string",
          "name": "_message",
          "type": "string"
        }
      ],
      "name": "sendMessage",
      "outputs": [],
      "stateMutability": "nonpayable",
      "type": "function"
    },
    {
      "inputs": [],
      "name": "getAllRestaurants",
      "outputs": [
        {
          "components": [
            {
              "internalType": "uint256",
              "name": "id",
              "type": "uint256"
            },
            {
              "internalType": "string",
              "name": "name",
              "type": "string"
            },
            {
              "internalType": "string",
              "name": "houseNumber",
              "type": "string"
            },
            {
              "internalType": "string",
              "name": "street",
              "type": "string"
            },
            {
              "internalType": "string",
              "name": "ward",
              "type": "string"
            },
            {
              "internalType": "string",
              "name": "district",
              "type": "string"
            },
            {
              "internalType": "string",
              "name": "city",
              "type": "string"
            },
            {
              "internalType": "address",
              "name": "owner",
              "type": "address"
            }
          ],
          "internalType": "struct Bookfood.Restaurant[]",
          "name": "",
          "type": "tuple[]"
        }
      ],
      "stateMutability": "view",
      "type": "function"
    },
    {
      "inputs": [],
      "name": "getAllFoods",
      "outputs": [
        {
          "components": [
            {
              "internalType": "uint256",
              "name": "id",
              "type": "uint256"
            },
            {
              "internalType": "string",
              "name": "name",
              "type": "string"
            },
            {
              "internalType": "string",
              "name": "img",
              "type": "string"
            },
            {
              "internalType": "uint256",
              "name": "restaurantId",
              "type": "uint256"
            },
            {
              "internalType": "uint256",
              "name": "categoryId",
              "type": "uint256"
            },
            {
              "internalType": "uint256",
              "name": "price",
              "type": "uint256"
            },
            {
              "internalType": "bool",
              "name": "isVegan",
              "type": "bool"
            },
            {
              "internalType": "bool",
              "name": "isGlutenFree",
              "type": "bool"
            },
            {
              "internalType": "uint256",
              "name": "totalStars",
              "type": "uint256"
            },
            {
              "internalType": "uint256",
              "name": "totalRatings",
              "type": "uint256"
            }
          ],
          "internalType": "struct Bookfood.Food[]",
          "name": "",
          "type": "tuple[]"
        }
      ],
      "stateMutability": "view",
      "type": "function"
    },
    {
      "inputs": [],
      "name": "getAllCategory",
      "outputs": [
        {
          "components": [
            {
              "internalType": "uint256",
              "name": "id",
              "type": "uint256"
            },
            {
              "internalType": "string",
              "name": "name",
              "type": "string"
            }
          ],
          "internalType": "struct Bookfood.FoodCategory[]",
          "name": "",
          "type": "tuple[]"
        }
      ],
      "stateMutability": "view",
      "type": "function"
    },
    {
      "inputs": [],
      "name": "getOrdersBySender",
      "outputs": [
        {
          "components": [
            {
              "internalType": "uint256",
              "name": "id",
              "type": "uint256"
            },
            {
              "internalType": "uint256",
              "name": "restaurantId",
              "type": "uint256"
            },
            {
              "internalType": "address",
              "name": "customer",
              "type": "address"
            },
            {
              "internalType": "uint256",
              "name": "discount",
              "type": "uint256"
            },
            {
              "internalType": "uint256",
              "name": "totalPrice",
              "type": "uint256"
            },
            {
              "internalType": "enum Bookfood.OrderStatus",
              "name": "status",
              "type": "uint8"
            },
            {
              "internalType": "enum Bookfood.Payment",
              "name": "payment",
              "type": "uint8"
            },
            {
              "internalType": "bool",
              "name": "isReviewed",
              "type": "bool"
            },
            {
              "internalType": "bool",
              "name": "isPay",
              "type": "bool"
            },
            {
              "internalType": "string",
              "name": "note",
              "type": "string"
            }
          ],
          "internalType": "struct Bookfood.Order[]",
          "name": "",
          "type": "tuple[]"
        }
      ],
      "stateMutability": "view",
      "type": "function"
    },
    {
      "inputs": [
        {
          "internalType": "uint256",
          "name": "_orderId",
          "type": "uint256"
        }
      ],
      "name": "getOrderDetails",
      "outputs": [
        {
          "components": [
            {
              "internalType": "uint256",
              "name": "foodId",
              "type": "uint256"
            },
            {
              "internalType": "uint256",
              "name": "quantity",
              "type": "uint256"
            },
            {
              "internalType": "uint256",
              "name": "price",
              "type": "uint256"
            }
          ],
          "internalType": "struct Bookfood.DetailOrder[]",
          "name": "",
          "type": "tuple[]"
        }
      ],
      "stateMutability": "view",
      "type": "function"
    },
    {
      "inputs": [
        {
          "internalType": "uint256",
          "name": "_foodId",
          "type": "uint256"
        }
      ],
      "name": "getRatingsForFood",
      "outputs": [
        {
          "components": [
            {
              "internalType": "uint256",
              "name": "id",
              "type": "uint256"
            },
            {
              "internalType": "uint256",
              "name": "foodId",
              "type": "uint256"
            },
            {
              "internalType": "address",
              "name": "user",
              "type": "address"
            },
            {
              "internalType": "string",
              "name": "review",
              "type": "string"
            },
            {
              "internalType": "uint256",
              "name": "stars",
              "type": "uint256"
            }
          ],
          "internalType": "struct Bookfood.Rating[]",
          "name": "",
          "type": "tuple[]"
        }
      ],
      "stateMutability": "view",
      "type": "function"
    },
    {
      "inputs": [
        {
          "internalType": "string",
          "name": "_keyword",
          "type": "string"
        }
      ],
      "name": "searchRestaurants",
      "outputs": [
        {
          "components": [
            {
              "internalType": "uint256",
              "name": "id",
              "type": "uint256"
            },
            {
              "internalType": "string",
              "name": "name",
              "type": "string"
            },
            {
              "internalType": "string",
              "name": "houseNumber",
              "type": "string"
            },
            {
              "internalType": "string",
              "name": "street",
              "type": "string"
            },
            {
              "internalType": "string",
              "name": "ward",
              "type": "string"
            },
            {
              "internalType": "string",
              "name": "district",
              "type": "string"
            },
            {
              "internalType": "string",
              "name": "city",
              "type": "string"
            },
            {
              "internalType": "address",
              "name": "owner",
              "type": "address"
            }
          ],
          "internalType": "struct Bookfood.Restaurant[]",
          "name": "",
          "type": "tuple[]"
        }
      ],
      "stateMutability": "view",
      "type": "function"
    },
    {
      "inputs": [
        {
          "internalType": "string",
          "name": "_keyword",
          "type": "string"
        }
      ],
      "name": "searchFood",
      "outputs": [
        {
          "components": [
            {
              "internalType": "uint256",
              "name": "id",
              "type": "uint256"
            },
            {
              "internalType": "string",
              "name": "name",
              "type": "string"
            },
            {
              "internalType": "string",
              "name": "img",
              "type": "string"
            },
            {
              "internalType": "uint256",
              "name": "restaurantId",
              "type": "uint256"
            },
            {
              "internalType": "uint256",
              "name": "categoryId",
              "type": "uint256"
            },
            {
              "internalType": "uint256",
              "name": "price",
              "type": "uint256"
            },
            {
              "internalType": "bool",
              "name": "isVegan",
              "type": "bool"
            },
            {
              "internalType": "bool",
              "name": "isGlutenFree",
              "type": "bool"
            },
            {
              "internalType": "uint256",
              "name": "totalStars",
              "type": "uint256"
            },
            {
              "internalType": "uint256",
              "name": "totalRatings",
              "type": "uint256"
            }
          ],
          "internalType": "struct Bookfood.Food[]",
          "name": "",
          "type": "tuple[]"
        }
      ],
      "stateMutability": "view",
      "type": "function"
    },
    {
      "inputs": [],
      "name": "getAllOrders",
      "outputs": [
        {
          "components": [
            {
              "internalType": "uint256",
              "name": "id",
              "type": "uint256"
            },
            {
              "internalType": "uint256",
              "name": "restaurantId",
              "type": "uint256"
            },
            {
              "internalType": "address",
              "name": "customer",
              "type": "address"
            },
            {
              "internalType": "uint256",
              "name": "discount",
              "type": "uint256"
            },
            {
              "internalType": "uint256",
              "name": "totalPrice",
              "type": "uint256"
            },
            {
              "internalType": "enum Bookfood.OrderStatus",
              "name": "status",
              "type": "uint8"
            },
            {
              "internalType": "enum Bookfood.Payment",
              "name": "payment",
              "type": "uint8"
            },
            {
              "internalType": "bool",
              "name": "isReviewed",
              "type": "bool"
            },
            {
              "internalType": "bool",
              "name": "isPay",
              "type": "bool"
            },
            {
              "internalType": "string",
              "name": "note",
              "type": "string"
            }
          ],
          "internalType": "struct Bookfood.Order[]",
          "name": "",
          "type": "tuple[]"
        }
      ],
      "stateMutability": "view",
      "type": "function"
    }
  ],
  "bytecode": "0x60806040523480156200001157600080fd5b50604051620049883803806200498883398101604081905262000034916200005a565b600980546001600160a01b0319166001600160a01b03929092169190911790556200008c565b6000602082840312156200006d57600080fd5b81516001600160a01b03811681146200008557600080fd5b9392505050565b6148ec806200009c6000396000f3fe60806040526004361061019c5760003560e01c8063a85c38ef116100ec578063c6cdbe5e1161008a578063de6f24bb11610064578063de6f24bb14610528578063e7253aa914610548578063e9d8ba4714610575578063ec7dd7bb146105d757600080fd5b8063c6cdbe5e146104c5578063ce31a684146104f3578063d21d6f151461050857600080fd5b8063ad71acbd116100c6578063ad71acbd14610450578063b90e6e5814610470578063b9b5aae614610490578063c1fa671e146104a557600080fd5b8063a85c38ef146103c6578063aab3196d146103fc578063ad5461d81461041c57600080fd5b8063482ef36011610159578063877344001161013357806387734400146103355780638e434657146103575780638f2c280514610377578063a7e395201461039957600080fd5b8063482ef360146102b55780635ac88c1c146102e65780637bea0d1c1461031357600080fd5b806314d3f10e146101a15780632e0dcbf7146101e0578063302355bd14610202578063358b81661461023d57806338af3eed1461026a5780633a2f8485146102a2575b600080fd5b3480156101ad57600080fd5b506101c16101bc366004613996565b610604565b6040516101d79a999897969594939291906139f5565b60405180910390f35b3480156101ec57600080fd5b506102006101fb366004613b15565b610769565b005b34801561020e57600080fd5b5061022f61021d366004613996565b60066020526000908152604090205481565b6040519081526020016101d7565b34801561024957600080fd5b5061022f610258366004613b6d565b60086020526000908152604090205481565b34801561027657600080fd5b5060095461028a906001600160a01b031681565b6040516001600160a01b0390911681526020016101d7565b6102006102b0366004613996565b6107c0565b3480156102c157600080fd5b506102d56102d0366004613b8f565b6108d8565b6040516101d7959493929190613bb1565b3480156102f257600080fd5b5061022f610301366004613996565b60036020526000908152604090205481565b34801561031f57600080fd5b506103286109a3565b6040516101d79190613c34565b34801561034157600080fd5b5061034a610bc7565b6040516101d79190613d20565b34801561036357600080fd5b50610200610372366004613e2d565b61100a565b34801561038357600080fd5b5061038c61117f565b6040516101d79190613f33565b3480156103a557600080fd5b506103b96103b4366004613b15565b6112e8565b6040516101d79190613f99565b3480156103d257600080fd5b506103e66103e1366004613996565b6116c0565b6040516101d79a99989796959493929190614069565b34801561040857600080fd5b506102006104173660046140f5565b6117b4565b34801561042857600080fd5b5061043c610437366004613996565b611a79565b6040516101d7989796959493929190614125565b34801561045c57600080fd5b5061034a61046b366004613b15565b611df3565b34801561047c57600080fd5b5061020061048b3660046141d1565b6123e4565b34801561049c57600080fd5b506103b9612558565b3480156104b157600080fd5b506102006104c0366004614300565b612790565b3480156104d157600080fd5b506104e56104e0366004613996565b612b7c565b6040516101d79291906143de565b3480156104ff57600080fd5b50610328612c21565b34801561051457600080fd5b506102006105233660046143f7565b612ebf565b34801561053457600080fd5b506102006105433660046144a2565b61341e565b34801561055457600080fd5b50610568610563366004613996565b61346d565b6040516101d791906144ef565b34801561058157600080fd5b506105bc610590366004613b8f565b600560209081526000928352604080842090915290825290208054600182015460029092015490919083565b604080519384526020840192909252908201526060016101d7565b3480156105e357600080fd5b506105f76105f2366004613996565b613697565b6040516101d79190614584565b600160208190526000918252604090912080549181018054610625906145dd565b80601f0160208091040260200160405190810160405280929190818152602001828054610651906145dd565b801561069e5780601f106106735761010080835404028352916020019161069e565b820191906000526020600020905b81548152906001019060200180831161068157829003601f168201915b5050505050908060020180546106b3906145dd565b80601f01602080910402602001604051908101604052809291908181526020018280546106df906145dd565b801561072c5780601f106107015761010080835404028352916020019161072c565b820191906000526020600020905b81548152906001019060200180831161070f57829003601f168201915b505050600384015460048501546005860154600687015460078801546008909801549697939692955090935060ff8082169361010090920416918a565b600d805490600061077983614627565b9091555050604080518082018252600d5480825260208083018581526000928352600790915292902081518155915190919060018201906107ba908261468f565b50505050565b600081815260046020526040902060028101546001600160a01b0316331461082f5760405162461bcd60e51b815260206004820152601860248201527f4f6e6c79206f72646572206f776e65722063616e20706179000000000000000060448201526064015b60405180910390fd5b600481015480610841346103e861474e565b10156108865760405162461bcd60e51b8152602060048201526014602482015273125b9cdd59999a58da595b9d081c185e5b595b9d60621b6044820152606401610826565b6009546040516001600160a01b03909116903480156108fc02916000818181858888f193505050501580156108bf573d6000803e3d6000fd5b5050600501805463ff0000001916630100000017905550565b6002602081815260009384526040808520909152918352912080546001820154928201546003830180549294936001600160a01b039092169261091a906145dd565b80601f0160208091040260200160405190810160405280929190818152602001828054610946906145dd565b80156109935780601f1061096857610100808354040283529160200191610993565b820191906000526020600020905b81548152906001019060200180831161097657829003601f168201915b5050505050908060040154905085565b60606000600c546001600160401b038111156109c1576109c1613a60565b6040519080825280602002602001820160405280156109fa57816020015b6109e7613886565b8152602001906001900390816109df5790505b50905060015b600c548111610bc157600081815260046020818152604092839020835161014081018552815481526001820154928101929092526002808201546001600160a01b031694830194909452600381015460608301529182015460808201526005820154909260a084019160ff1690811115610a7c57610a7c613bf0565b6002811115610a8d57610a8d613bf0565b81526020016005820160019054906101000a900460ff166002811115610ab557610ab5613bf0565b6002811115610ac657610ac6613bf0565b8152600582015460ff62010000820481161515602084015263010000009091041615156040820152600682018054606090920191610b03906145dd565b80601f0160208091040260200160405190810160405280929190818152602001828054610b2f906145dd565b8015610b7c5780601f10610b5157610100808354040283529160200191610b7c565b820191906000526020600020905b815481529060010190602001808311610b5f57829003601f168201915b50505050508152505082600183610b939190614765565b81518110610ba357610ba3614778565b60200260200101819052508080610bb990614627565b915050610a00565b50919050565b60606000600a546001600160401b03811115610be557610be5613a60565b604051908082528060200260200182016040528015610c1e57816020015b610c0b6138f1565b815260200190600190039081610c035790505b50905060015b600a548111610bc1576000818152602081815260409182902082516101008101909352805483526001810180549192840191610c5f906145dd565b80601f0160208091040260200160405190810160405280929190818152602001828054610c8b906145dd565b8015610cd85780601f10610cad57610100808354040283529160200191610cd8565b820191906000526020600020905b815481529060010190602001808311610cbb57829003601f168201915b50505050508152602001600282018054610cf1906145dd565b80601f0160208091040260200160405190810160405280929190818152602001828054610d1d906145dd565b8015610d6a5780601f10610d3f57610100808354040283529160200191610d6a565b820191906000526020600020905b815481529060010190602001808311610d4d57829003601f168201915b50505050508152602001600382018054610d83906145dd565b80601f0160208091040260200160405190810160405280929190818152602001828054610daf906145dd565b8015610dfc5780601f10610dd157610100808354040283529160200191610dfc565b820191906000526020600020905b815481529060010190602001808311610ddf57829003601f168201915b50505050508152602001600482018054610e15906145dd565b80601f0160208091040260200160405190810160405280929190818152602001828054610e41906145dd565b8015610e8e5780601f10610e6357610100808354040283529160200191610e8e565b820191906000526020600020905b815481529060010190602001808311610e7157829003601f168201915b50505050508152602001600582018054610ea7906145dd565b80601f0160208091040260200160405190810160405280929190818152602001828054610ed3906145dd565b8015610f205780601f10610ef557610100808354040283529160200191610f20565b820191906000526020600020905b815481529060010190602001808311610f0357829003601f168201915b50505050508152602001600682018054610f39906145dd565b80601f0160208091040260200160405190810160405280929190818152602001828054610f65906145dd565b8015610fb25780601f10610f8757610100808354040283529160200191610fb2565b820191906000526020600020905b815481529060010190602001808311610f9557829003601f168201915b5050509183525050600791909101546001600160a01b031660209091015282610fdc600184614765565b81518110610fec57610fec614778565b6020026020010181905250808061100290614627565b915050610c24565b6001600160a01b0381166110605760405162461bcd60e51b815260206004820152601c60248201527f4f776e657220616464726573732063616e6e6f74206265207a65726f000000006044820152606401610826565b600a805490600061107083614627565b90915550506040805161010081018252600a5480825260208083018b81528385018b9052606084018a90526080840189905260a0840188905260c084018790526001600160a01b03861660e085015260009283529082905292902081518155915190919060018201906110e3908261468f565b50604082015160028201906110f8908261468f565b506060820151600382019061110d908261468f565b5060808201516004820190611122908261468f565b5060a08201516005820190611137908261468f565b5060c0820151600682019061114c908261468f565b5060e09190910151600790910180546001600160a01b0319166001600160a01b0390921691909117905550505050505050565b60606000600d546001600160401b0381111561119d5761119d613a60565b6040519080825280602002602001820160405280156111e357816020015b6040805180820190915260008152606060208201528152602001906001900390816111bb5790505b50905060015b600d548111610bc157600760008281526020019081526020016000206040518060400160405290816000820154815260200160018201805461122a906145dd565b80601f0160208091040260200160405190810160405280929190818152602001828054611256906145dd565b80156112a35780601f10611278576101008083540402835291602001916112a3565b820191906000526020600020905b81548152906001019060200180831161128657829003601f168201915b505050505081525050826001836112ba9190614765565b815181106112ca576112ca614778565b602002602001018190525080806112e090614627565b9150506111e9565b60606000600b546001600160401b0381111561130657611306613a60565b60405190808252806020026020018201604052801561133f57816020015b61132c61393f565b8152602001906001900390816113245790505b509050600060015b600b54811161160b576113f8600160008381526020019081526020016000206001018054611374906145dd565b80601f01602080910402602001604051908101604052809291908181526020018280546113a0906145dd565b80156113ed5780601f106113c2576101008083540402835291602001916113ed565b820191906000526020600020905b8154815290600101906020018083116113d057829003601f168201915b5050505050866137a5565b8061142e57506000818152600160208181526040808420600401548452600790915290912001805461142e9190611374906145dd565b156115f9576000818152600160208181526040928390208351610140810190945280548452918201805491840191611465906145dd565b80601f0160208091040260200160405190810160405280929190818152602001828054611491906145dd565b80156114de5780601f106114b3576101008083540402835291602001916114de565b820191906000526020600020905b8154815290600101906020018083116114c157829003601f168201915b505050505081526020016002820180546114f7906145dd565b80601f0160208091040260200160405190810160405280929190818152602001828054611523906145dd565b80156115705780601f1061154557610100808354040283529160200191611570565b820191906000526020600020905b81548152906001019060200180831161155357829003601f168201915b5050509183525050600382015460208201526004820154604082015260058201546060820152600682015460ff8082161515608084015261010090910416151560a0820152600782015460c082015260089091015460e09091015283518490849081106115df576115df614778565b602002602001018190525081806115f590614627565b9250505b8061160381614627565b915050611347565b506000816001600160401b0381111561162657611626613a60565b60405190808252806020026020018201604052801561165f57816020015b61164c61393f565b8152602001906001900390816116445790505b50905060005b828110156116b75783818151811061167f5761167f614778565b602002602001015182828151811061169957611699614778565b602002602001018190525080806116af90614627565b915050611665565b50949350505050565b60046020819052600091825260409091208054600182015460028301546003840154948401546005850154600686018054959794966001600160a01b0390941695929360ff8084169461010085048216946201000081048316946301000000909104909216929190611731906145dd565b80601f016020809104026020016040519081016040528092919081815260200182805461175d906145dd565b80156117aa5780601f1061177f576101008083540402835291602001916117aa565b820191906000526020600020905b81548152906001019060200180831161178d57829003601f168201915b505050505090508a565b60008281526004602052604081205490036118085760405162461bcd60e51b815260206004820152601460248201527313dc99195c88191bd95cc81b9bdd08195e1a5cdd60621b6044820152606401610826565b60008281526004602052604090206005015460ff16600281111561182e5761182e613bf0565b81600281111561184057611840613bf0565b1161188d5760405162461bcd60e51b815260206004820152601960248201527f496e76616c696420737461747573207472616e736974696f6e000000000000006044820152606401610826565b6000828152600460209081526040808320600101548352908290529020600701546001600160a01b0316338114806118cf57506009546001600160a01b031633145b61193a5760405162461bcd60e51b815260206004820152603660248201527f4f6e6c792072657374617572616e74206f776e6572206f722062656e65666963604482015275696172792063616e207570646174652073746174757360501b6064820152608401610826565b60008084815260046020526040902060050154610100900460ff16600281111561196657611966613bf0565b036119e8576000838152600460205260409020600501546301000000900460ff166119e85760405162461bcd60e51b815260206004820152602c60248201527f5061796d656e74206d75737420626520636f6d706c6574656420666f7220457760448201526b616c6c6574206f726465727360a01b6064820152608401610826565b6000838152600460205260409020600501805483919060ff19166001836002811115611a1657611a16613bf0565b0217905550600083815260046020526040908190206002015490516001600160a01b03909116907f72dd0d4e3f429b5df521039075b9cc56fe25cd440df6186114f6aa93505a39fa90611a6c908690869061478e565b60405180910390a2505050565b60006020819052908152604090208054600182018054919291611a9b906145dd565b80601f0160208091040260200160405190810160405280929190818152602001828054611ac7906145dd565b8015611b145780601f10611ae957610100808354040283529160200191611b14565b820191906000526020600020905b815481529060010190602001808311611af757829003601f168201915b505050505090806002018054611b29906145dd565b80601f0160208091040260200160405190810160405280929190818152602001828054611b55906145dd565b8015611ba25780601f10611b7757610100808354040283529160200191611ba2565b820191906000526020600020905b815481529060010190602001808311611b8557829003601f168201915b505050505090806003018054611bb7906145dd565b80601f0160208091040260200160405190810160405280929190818152602001828054611be3906145dd565b8015611c305780601f10611c0557610100808354040283529160200191611c30565b820191906000526020600020905b815481529060010190602001808311611c1357829003601f168201915b505050505090806004018054611c45906145dd565b80601f0160208091040260200160405190810160405280929190818152602001828054611c71906145dd565b8015611cbe5780601f10611c9357610100808354040283529160200191611cbe565b820191906000526020600020905b815481529060010190602001808311611ca157829003601f168201915b505050505090806005018054611cd3906145dd565b80601f0160208091040260200160405190810160405280929190818152602001828054611cff906145dd565b8015611d4c5780601f10611d2157610100808354040283529160200191611d4c565b820191906000526020600020905b815481529060010190602001808311611d2f57829003601f168201915b505050505090806006018054611d61906145dd565b80601f0160208091040260200160405190810160405280929190818152602001828054611d8d906145dd565b8015611dda5780601f10611daf57610100808354040283529160200191611dda565b820191906000526020600020905b815481529060010190602001808311611dbd57829003601f168201915b505050600790930154919250506001600160a01b031688565b60606000600a546001600160401b03811115611e1157611e11613a60565b604051908082528060200260200182016040528015611e4a57816020015b611e376138f1565b815260200190600190039081611e2f5790505b509050600060015b600a548111612338576000818152602081815260408083209051611e8b926003830192600481019260058201926006909201910161481e565b60408051601f1981840301815291815260008481526020819052206001018054919250611f3f91611ebb906145dd565b80601f0160208091040260200160405190810160405280929190818152602001828054611ee7906145dd565b8015611f345780601f10611f0957610100808354040283529160200191611f34565b820191906000526020600020905b815481529060010190602001808311611f1757829003601f168201915b5050505050876137a5565b80611f4f5750611f4f81876137a5565b15612325576000828152602081815260409182902082516101008101909352805483526001810180549192840191611f86906145dd565b80601f0160208091040260200160405190810160405280929190818152602001828054611fb2906145dd565b8015611fff5780601f10611fd457610100808354040283529160200191611fff565b820191906000526020600020905b815481529060010190602001808311611fe257829003601f168201915b50505050508152602001600282018054612018906145dd565b80601f0160208091040260200160405190810160405280929190818152602001828054612044906145dd565b80156120915780601f1061206657610100808354040283529160200191612091565b820191906000526020600020905b81548152906001019060200180831161207457829003601f168201915b505050505081526020016003820180546120aa906145dd565b80601f01602080910402602001604051908101604052809291908181526020018280546120d6906145dd565b80156121235780601f106120f857610100808354040283529160200191612123565b820191906000526020600020905b81548152906001019060200180831161210657829003601f168201915b5050505050815260200160048201805461213c906145dd565b80601f0160208091040260200160405190810160405280929190818152602001828054612168906145dd565b80156121b55780601f1061218a576101008083540402835291602001916121b5565b820191906000526020600020905b81548152906001019060200180831161219857829003601f168201915b505050505081526020016005820180546121ce906145dd565b80601f01602080910402602001604051908101604052809291908181526020018280546121fa906145dd565b80156122475780601f1061221c57610100808354040283529160200191612247565b820191906000526020600020905b81548152906001019060200180831161222a57829003601f168201915b50505050508152602001600682018054612260906145dd565b80601f016020809104026020016040519081016040528092919081815260200182805461228c906145dd565b80156122d95780601f106122ae576101008083540402835291602001916122d9565b820191906000526020600020905b8154815290600101906020018083116122bc57829003601f168201915b5050509183525050600791909101546001600160a01b0316602090910152845185908590811061230b5761230b614778565b6020026020010181905250828061232190614627565b9350505b508061233081614627565b915050611e52565b506000816001600160401b0381111561235357612353613a60565b60405190808252806020026020018201604052801561238c57816020015b6123796138f1565b8152602001906001900390816123715790505b50905060005b828110156116b7578381815181106123ac576123ac614778565b60200260200101518282815181106123c6576123c6614778565b602002602001018190525080806123dc90614627565b915050612392565b60008681526020819052604081205490036124415760405162461bcd60e51b815260206004820152601960248201527f52657374617572616e7420646f6573206e6f74206578697374000000000000006044820152606401610826565b600b805490600061245183614627565b9190505550604051806101400160405280600b5481526020018881526020018281526020018781526020018681526020018581526020018415158152602001831515815260200160008152602001600081525060016000600b5481526020019081526020016000206000820151816000015560208201518160010190816124d8919061468f565b50604082015160028201906124ed908261468f565b50606082015160038201556080820151600482015560a0820151600582015560c082015160068201805460e085015161ffff1990911692151561ff00191692909217610100921515830217905582015160078201556101209091015160089091015550505050505050565b60606000600b546001600160401b0381111561257657612576613a60565b6040519080825280602002602001820160405280156125af57816020015b61259c61393f565b8152602001906001900390816125945790505b50905060015b600b548111610bc15760008181526001602081815260409283902083516101408101909452805484529182018054918401916125f0906145dd565b80601f016020809104026020016040519081016040528092919081815260200182805461261c906145dd565b80156126695780601f1061263e57610100808354040283529160200191612669565b820191906000526020600020905b81548152906001019060200180831161264c57829003601f168201915b50505050508152602001600282018054612682906145dd565b80601f01602080910402602001604051908101604052809291908181526020018280546126ae906145dd565b80156126fb5780601f106126d0576101008083540402835291602001916126fb565b820191906000526020600020905b8154815290600101906020018083116126de57829003601f168201915b5050509183525050600382015460208201526004820154604082015260058201546060820152600682015460ff8082161515608084015261010090910416151560a0820152600782015460c082015260089091015460e09091015282612762600184614765565b8151811061277257612772614778565b6020026020010181905250808061278890614627565b9150506125b5565b80518251146127dc5760405162461bcd60e51b81526020600482015260186024820152774d69736d617463686564206172726179206c656e6774687360401b6044820152606401610826565b6000838152600460205260409020600201546001600160a01b031633146128455760405162461bcd60e51b815260206004820152601f60248201527f4f6e6c79207468652062757965722063616e20616464206120726174696e67006044820152606401610826565b60008381526004602052604090206005015462010000900460ff16156128ad5760405162461bcd60e51b815260206004820152601f60248201527f4f6e6c79207468652062757965722063616e20616464206120726174696e67006044820152606401610826565b60005b600084815260066020526040902054811015612b57576000848152600560205260408120816128e084600161486e565b8152602001908152602001600020600001549050806000036129445760405162461bcd60e51b815260206004820152601a60248201527f44657461696c4f7264657220646f6573206e6f742065786973740000000000006044820152606401610826565b600183838151811061295857612958614778565b6020026020010151101580156129885750600583838151811061297d5761297d614778565b602002602001015111155b6129d45760405162461bcd60e51b815260206004820152601d60248201527f5374617273206d757374206265206265747765656e203120616e6420350000006044820152606401610826565b60008181526003602052604081208054916129ee83614627565b91905055506000600360008381526020019081526020016000205490506040518060a00160405280828152602001838152602001336001600160a01b03168152602001868581518110612a4357612a43614778565b60200260200101518152602001858581518110612a6257612a62614778565b602090810291909101810151909152600084815260028083526040808320868452845291829020845181559284015160018401559083015190820180546001600160a01b0319166001600160a01b0390921691909117905560608201516003820190612ace908261468f565b5060808201518160040155905050838381518110612aee57612aee614778565b6020026020010151600160008481526020019081526020016000206007016000828254612b1b919061486e565b90915550506000828152600160205260408120600801805491612b3d83614627565b919050555050508080612b4f90614627565b9150506128b0565b5050506000908152600460205260409020600501805462ff0000191662010000179055565b60076020526000908152604090208054600182018054919291612b9e906145dd565b80601f0160208091040260200160405190810160405280929190818152602001828054612bca906145dd565b8015612c175780601f10612bec57610100808354040283529160200191612c17565b820191906000526020600020905b815481529060010190602001808311612bfa57829003601f168201915b5050505050905082565b6060600060015b600c548111612c7457600081815260046020526040902060020154336001600160a01b0390911603612c625781612c5e81614627565b9250505b80612c6c81614627565b915050612c28565b506000816001600160401b03811115612c8f57612c8f613a60565b604051908082528060200260200182016040528015612cc857816020015b612cb5613886565b815260200190600190039081612cad5790505b509050600060015b600c548111612eb657600081815260046020526040902060020154336001600160a01b0390911603612ea457600081815260046020818152604092839020835161014081018552815481526001820154928101929092526002808201546001600160a01b031694830194909452600381015460608301529182015460808201526005820154909260a084019160ff1690811115612d6f57612d6f613bf0565b6002811115612d8057612d80613bf0565b81526020016005820160019054906101000a900460ff166002811115612da857612da8613bf0565b6002811115612db957612db9613bf0565b8152600582015460ff62010000820481161515602084015263010000009091041615156040820152600682018054606090920191612df6906145dd565b80601f0160208091040260200160405190810160405280929190818152602001828054612e22906145dd565b8015612e6f5780601f10612e4457610100808354040283529160200191612e6f565b820191906000526020600020905b815481529060010190602001808311612e5257829003601f168201915b505050505081525050838381518110612e8a57612e8a614778565b60200260200101819052508180612ea090614627565b9250505b80612eae81614627565b915050612cd0565b50909392505050565b6000845111612f225760405162461bcd60e51b815260206004820152602960248201527f4f72646572206d75737420636f6e7461696e206174206c65617374206f6e6520604482015268666f6f64206974656d60b81b6064820152608401610826565b8251845114612f6e5760405162461bcd60e51b81526020600482015260186024820152774d69736d617463686564206172726179206c656e6774687360401b6044820152606401610826565b600c805460009182612f7f83614627565b91905055506000805b86518110156131fc5760016000888381518110612fa757612fa7614778565b60200260200101518152602001908152602001600020600001546000036130065760405162461bcd60e51b8152602060048201526013602482015272119bdbd908191bd95cc81b9bdd08195e1a5cdd606a1b6044820152606401610826565b81600003613041576001600088838151811061302457613024614778565b602002602001015181526020019081526020016000206003015491505b6001600088838151811061305757613057614778565b602002602001015181526020019081526020016000206003015482146130c95760405162461bcd60e51b815260206004820152602160248201527f666f6f64206e6f742066726f6d207468652073616d652072657374617572616e6044820152601d60fa1b6064820152608401610826565b60008682815181106130dd576130dd614778565b6020026020010151600160008a85815181106130fb576130fb614778565b602002602001015181526020019081526020016000206005015461311f919061474e565b905061312b818561486e565b600c54600090815260066020526040812080549296509061314b83614627565b9190505550600060066000600c54815260200190815260200160002054905060405180606001604052808a858151811061318757613187614778565b602002602001015181526020018985815181106131a6576131a6614778565b602090810291909101810151825290810193909352600c546000908152600584526040808220938252928452829020815181559281015160018401550151600290910155806131f481614627565b915050612f88565b506000841561326357336000908152600860205260409020546032811115613222575060325b606461322e828661474e565b6132389190614881565b3360009081526008602052604081208054929450839290919061325c908490614765565b9091555050505b604051806101400160405280600c548152602001838152602001336001600160a01b03168152602001828152602001828561329e9190614765565b8152602001600081526020018960028111156132bc576132bc613bf0565b81526020016000151581526020016000151581526020018581525060046000600c548152602001908152602001600020600082015181600001556020820151816001015560408201518160020160006101000a8154816001600160a01b0302191690836001600160a01b03160217905550606082015181600301556080820151816004015560a08201518160050160006101000a81548160ff0219169083600281111561336b5761336b613bf0565b021790555060c082015160058201805461ff00191661010083600281111561339557613395613bf0565b021790555060e0820151600582018054610100850151151563010000000263ff0000001993151562010000029390931663ffff0000199091161791909117905561012082015160068201906133ea908261468f565b505033600090815260086020526040812080546001935090919061340f90849061486e565b90915550505050505050505050565b816001600160a01b0316336001600160a01b03167fe2cf7446a11cbcd14cd99ea3a1bb77fb7653a64f4064d660140b5100d001e13c8360405161346191906148a3565b60405180910390a35050565b600081815260016020526040812054606091036134c25760405162461bcd60e51b8152602060048201526013602482015272119bdbd908191bd95cc81b9bdd08195e1a5cdd606a1b6044820152606401610826565b60008281526003602052604081205490816001600160401b038111156134ea576134ea613a60565b60405190808252806020026020018201604052801561355657816020015b6135436040518060a00160405280600081526020016000815260200160006001600160a01b0316815260200160608152602001600081525090565b8152602001906001900390816135085790505b50905060005b8281101561368f5760008581526002602052604081209061357e83600161486e565b81526020808201929092526040908101600020815160a0810183528154815260018201549381019390935260028101546001600160a01b0316918301919091526003810180546060840191906135d3906145dd565b80601f01602080910402602001604051908101604052809291908181526020018280546135ff906145dd565b801561364c5780601f106136215761010080835404028352916020019161364c565b820191906000526020600020905b81548152906001019060200180831161362f57829003601f168201915b5050505050815260200160048201548152505082828151811061367157613671614778565b6020026020010181905250808061368790614627565b91505061355c565b509392505050565b600081815260066020526040812054606091816001600160401b038111156136c1576136c1613a60565b60405190808252806020026020018201604052801561371657816020015b61370360405180606001604052806000815260200160008152602001600081525090565b8152602001906001900390816136df5790505b50905060005b8281101561368f5760008581526005602052604081209061373e83600161486e565b8152602001908152602001600020604051806060016040529081600082015481526020016001820154815260200160028201548152505082828151811061378757613787614778565b6020026020010181905250808061379d90614627565b91505061371c565b815181516000918491849110156137c157600092505050613880565b60005b815183516137d29190614765565b811161387857600160005b8351811015613851578381815181106137f8576137f8614778565b01602001516001600160f81b03191685613812838661486e565b8151811061382257613822614778565b01602001516001600160f81b0319161461383f5760009150613851565b8061384981614627565b9150506137dd565b508015613865576001945050505050613880565b508061387081614627565b9150506137c4565b506000925050505b92915050565b604051806101400160405280600081526020016000815260200160006001600160a01b031681526020016000815260200160008152602001600060028111156138d1576138d1613bf0565b815260200160008152600060208201819052604082015260609081015290565b6040518061010001604052806000815260200160608152602001606081526020016060815260200160608152602001606081526020016060815260200160006001600160a01b031681525090565b60405180610140016040528060008152602001606081526020016060815260200160008152602001600081526020016000815260200160001515815260200160001515815260200160008152602001600081525090565b6000602082840312156139a857600080fd5b5035919050565b6000815180845260005b818110156139d5576020818501810151868301820152016139b9565b506000602082860101526020601f19601f83011685010191505092915050565b60006101408c8352806020840152613a0f8184018d6139af565b90508281036040840152613a23818c6139af565b606084019a909a525050608081019690965260a086019490945291151560c0850152151560e0840152610100830152610120909101529392505050565b634e487b7160e01b600052604160045260246000fd5b604051601f8201601f191681016001600160401b0381118282101715613a9e57613a9e613a60565b604052919050565b600082601f830112613ab757600080fd5b81356001600160401b03811115613ad057613ad0613a60565b613ae3601f8201601f1916602001613a76565b818152846020838601011115613af857600080fd5b816020850160208301376000918101602001919091529392505050565b600060208284031215613b2757600080fd5b81356001600160401b03811115613b3d57600080fd5b613b4984828501613aa6565b949350505050565b80356001600160a01b0381168114613b6857600080fd5b919050565b600060208284031215613b7f57600080fd5b613b8882613b51565b9392505050565b60008060408385031215613ba257600080fd5b50508035926020909101359150565b85815284602082015260018060a01b038416604082015260a060608201526000613bde60a08301856139af565b90508260808301529695505050505050565b634e487b7160e01b600052602160045260246000fd5b60038110613c2457634e487b7160e01b600052602160045260246000fd5b50565b613c3081613c06565b9052565b60006020808301818452808551808352604092508286019150828160051b87010184880160005b83811015613d1257603f198984030185528151805184528781015188850152868101516001600160a01b031687850152606080820151908501526080808201519085015260a0808201516101409190613cb682880182613c27565b505060c080830151613cca82880182613c27565b505060e0828101511515908601526101008083015115159086015261012091820151918501819052613cfe818601836139af565b968901969450505090860190600101613c5b565b509098975050505050505050565b60006020808301818452808551808352604092508286019150828160051b87010184880160005b83811015613d1257603f1989840301855281516101008151855288820151818a870152613d76828701826139af565b9150508782015185820389870152613d8e82826139af565b91505060608083015186830382880152613da883826139af565b9250505060808083015186830382880152613dc383826139af565b9250505060a08083015186830382880152613dde83826139af565b9250505060c08083015186830382880152613df983826139af565b9250505060e0808301519250613e19818701846001600160a01b03169052565b509588019593505090860190600101613d47565b600080600080600080600060e0888a031215613e4857600080fd5b87356001600160401b0380821115613e5f57600080fd5b613e6b8b838c01613aa6565b985060208a0135915080821115613e8157600080fd5b613e8d8b838c01613aa6565b975060408a0135915080821115613ea357600080fd5b613eaf8b838c01613aa6565b965060608a0135915080821115613ec557600080fd5b613ed18b838c01613aa6565b955060808a0135915080821115613ee757600080fd5b613ef38b838c01613aa6565b945060a08a0135915080821115613f0957600080fd5b50613f168a828b01613aa6565b925050613f2560c08901613b51565b905092959891949750929550565b60006020808301818452808551808352604092508286019150828160051b87010184880160005b83811015613d1257888303603f19018552815180518452870151878401879052613f86878501826139af565b9588019593505090860190600101613f5a565b60006020808301818452808551808352604092508286019150828160051b87010184880160005b83811015613d1257603f1989840301855281516101408151855288820151818a870152613fef828701826139af565b915050878201518582038987015261400782826139af565b606084810151908801526080808501519088015260a0808501519088015260c08085015115159088015260e080850151151590880152610100808501519088015261012093840151939096019290925250509386019390860190600101613fc0565b8a8152602081018a90526001600160a01b03891660408201526060810188905260808101879052600061014061409e88613c06565b8760a08401526140ad87613c06565b8660c084015285151560e0840152841515610100840152806101208401526140d7818401856139af565b9d9c50505050505050505050505050565b60038110613c2457600080fd5b6000806040838503121561410857600080fd5b82359150602083013561411a816140e8565b809150509250929050565b60006101008a835280602084015261413f8184018b6139af565b90508281036040840152614153818a6139af565b9050828103606084015261416781896139af565b9050828103608084015261417b81886139af565b905082810360a084015261418f81876139af565b905082810360c08401526141a381866139af565b91505060018060a01b03831660e08301529998505050505050505050565b80358015158114613b6857600080fd5b600080600080600080600060e0888a0312156141ec57600080fd5b87356001600160401b038082111561420357600080fd5b61420f8b838c01613aa6565b985060208a0135975060408a0135965060608a0135955061423260808b016141c1565b945061424060a08b016141c1565b935060c08a013591508082111561425657600080fd5b506142638a828b01613aa6565b91505092959891949750929550565b60006001600160401b0382111561428b5761428b613a60565b5060051b60200190565b600082601f8301126142a657600080fd5b813560206142bb6142b683614272565b613a76565b82815260059290921b840181019181810190868411156142da57600080fd5b8286015b848110156142f557803583529183019183016142de565b509695505050505050565b60008060006060848603121561431557600080fd5b833592506020808501356001600160401b038082111561433457600080fd5b818701915087601f83011261434857600080fd5b81356143566142b682614272565b81815260059190911b8301840190848101908a83111561437557600080fd5b8585015b838110156143ad578035858111156143915760008081fd5b61439f8d89838a0101613aa6565b845250918601918601614379565b509650505060408701359250808311156143c657600080fd5b50506143d486828701614295565b9150509250925092565b828152604060208201526000613b4960408301846139af565b600080600080600060a0868803121561440f57600080fd5b853561441a816140e8565b945060208601356001600160401b038082111561443657600080fd5b61444289838a01614295565b9550604088013591508082111561445857600080fd5b61446489838a01614295565b9450614472606089016141c1565b9350608088013591508082111561448857600080fd5b5061449588828901613aa6565b9150509295509295909350565b600080604083850312156144b557600080fd5b6144be83613b51565b915060208301356001600160401b038111156144d957600080fd5b6144e585828601613aa6565b9150509250929050565b60006020808301818452808551808352604092508286019150828160051b87010184880160005b83811015613d1257888303603f190185528151805184528781015188850152868101516001600160a01b03168785015260608082015160a08287018190529190614562838801826139af565b6080948501519790940196909652505094870194925090860190600101614516565b602080825282518282018190526000919060409081850190868401855b828110156145d057815180518552868101518786015285015185850152606090930192908501906001016145a1565b5091979650505050505050565b600181811c908216806145f157607f821691505b602082108103610bc157634e487b7160e01b600052602260045260246000fd5b634e487b7160e01b600052601160045260246000fd5b60006001820161463957614639614611565b5060010190565b601f82111561468a57600081815260208120601f850160051c810160208610156146675750805b601f850160051c820191505b8181101561468657828155600101614673565b5050505b505050565b81516001600160401b038111156146a8576146a8613a60565b6146bc816146b684546145dd565b84614640565b602080601f8311600181146146f157600084156146d95750858301515b600019600386901b1c1916600185901b178555614686565b600085815260208120601f198616915b8281101561472057888601518255948401946001909101908401614701565b508582101561473e5787850151600019600388901b60f8161c191681555b5050505050600190811b01905550565b808202811582820484141761388057613880614611565b8181038181111561388057613880614611565b634e487b7160e01b600052603260045260246000fd5b8281526040810161479e83613c06565b8260208301529392505050565b600081546147b8816145dd565b600182811680156147d057600181146147e557614814565b60ff1984168752821515830287019450614814565b8560005260208060002060005b8581101561480b5781548a8201529084019082016147f2565b50505082870194505b5050505092915050565b600061482a82876147ab565b600160fd1b80825261483f60018301886147ab565b915080825261485160018301876147ab565b908152905061486360018201856147ab565b979650505050505050565b8082018082111561388057613880614611565b60008261489e57634e487b7160e01b600052601260045260246000fd5b500490565b602081526000613b8860208301846139af56fea264697066735822122091191da34e85b2a5a31540fa448a658dae0bcb79799ddf2efdc3d2062cc8cfeb64736f6c63430008130033",
  "immutableReferences": {},
  "source": "// SPDX-License-Identifier: GPL-3.0\r\npragma solidity ^0.8.19;\r\n\r\ncontract Bookfood {\r\n\r\n    constructor(address payable  _beneficiary){\r\n       beneficiary= _beneficiary;\r\n    }\r\n\r\n    enum OrderStatus { Pending, Preparing, Delivered }\r\n    enum Payment  { Ewallet,Cash, CreditCard }\r\n\r\n    struct FoodCategory {\r\n        uint id;\r\n        string name;\r\n    }\r\n    \r\n    struct Restaurant {\r\n        uint id;\r\n        string name;\r\n        string houseNumber;\r\n        string street;\r\n        string ward;\r\n        string district;\r\n        string city;\r\n        address owner;\r\n    }\r\n\r\n    struct Food {\r\n        uint id;\r\n        string name;\r\n        string img;\r\n        uint restaurantId;\r\n        uint categoryId;\r\n        uint price;\r\n        bool isVegan;\r\n        bool isGlutenFree;\r\n        uint totalStars;\r\n        uint totalRatings;\r\n    }\r\n\r\n    struct Rating {\r\n        uint id;\r\n        uint foodId;\r\n        address user;\r\n        string review;\r\n        uint stars;\r\n    }\r\n\r\n    struct Order {\r\n        uint id;\r\n        uint restaurantId;\r\n        address customer;\r\n        uint discount;\r\n        uint totalPrice;\r\n        OrderStatus status;\r\n        Payment payment;\r\n        bool isReviewed;\r\n        bool isPay;\r\n        string note;\r\n    }\r\n\r\n    struct DetailOrder {\r\n        uint foodId;\r\n        uint quantity;\r\n        uint price;\r\n    }\r\n\r\n    mapping(uint => Restaurant) public restaurants;\r\n    mapping(uint => Food) public foods;\r\n    mapping(uint => mapping(uint => Rating)) public ratings;\r\n    mapping(uint => uint) public ratingCountPerFood; \r\n    mapping(uint => Order) public orders;\r\n    mapping(uint => mapping(uint => DetailOrder)) public orderDetails; \r\n    mapping(uint => uint) public orderDetailCount;\r\n    mapping(uint => FoodCategory) public categories; \r\n    mapping(address => uint) public points;\r\n\r\n    address payable public beneficiary;\r\n    uint restaurantCount;\r\n    uint foodCount;\r\n    uint orderCount;\r\n    uint categoryCount;\r\n\r\n    event OrderStatusUpdated(uint orderId, address indexed customer, OrderStatus status);\r\n    event MessageSent(address indexed sender, address indexed receiver, string message);\r\n\r\n    function processPayment(uint _orderId) public payable {\r\n        Order storage order = orders[_orderId];\r\n        require(order.customer == msg.sender, \"Only order owner can pay\");\r\n        \r\n        uint amountToPay = order.totalPrice;\r\n        require((msg.value *1000) >= amountToPay, \"Insufficient payment\");\r\n        \r\n        beneficiary.transfer(msg.value);\r\n        order.isPay=true;\r\n    }\r\n    \r\n    function addRestaurant(\r\n        string memory _name, \r\n        string memory _houseNumber, \r\n        string memory _street, \r\n        string memory _ward, \r\n        string memory _district, \r\n        string memory _city, \r\n        address _owner\r\n        \r\n    ) public {\r\n         require(_owner != address(0), \"Owner address cannot be zero\");\r\n        restaurantCount++;\r\n        restaurants[restaurantCount] = Restaurant(\r\n            restaurantCount, \r\n            _name, \r\n            _houseNumber, \r\n            _street, \r\n            _ward, \r\n            _district, \r\n            _city, \r\n            _owner\r\n        );\r\n    }\r\n\r\n    function addCategory(string memory _name) public {\r\n        categoryCount++;\r\n        categories[categoryCount] = FoodCategory(categoryCount, _name);\r\n    }\r\n    function addFood(\r\n        string memory _name, uint _restaurantId, uint _categoryId,\r\n        uint _price, bool _isVegan, bool _isGlutenFree, string memory img\r\n    ) public {\r\n        require(restaurants[_restaurantId].id != 0, \"Restaurant does not exist\");\r\n        foodCount++;\r\n        foods[foodCount] = Food(\r\n            foodCount, _name,img, _restaurantId, _categoryId,\r\n            _price, _isVegan, _isGlutenFree, 0, 0\r\n        );\r\n    }\r\n\r\nfunction addRating(uint _idOrder, string[] memory _reviews, uint[] memory _stars) public {\r\n    require(_reviews.length == _stars.length, \"Mismatched array lengths\");   \r\n    require(orders[_idOrder].customer == msg.sender, \"Only the buyer can add a rating\");\r\n    require(orders[_idOrder].isReviewed == false, \"Only the buyer can add a rating\");\r\n    \r\n\r\n    for (uint i = 0; i < orderDetailCount[_idOrder]; i++) {\r\n        uint foodId = orderDetails[_idOrder][i+1].foodId; // Ly foodId t orderDetails\r\n        require(foodId != 0, \"DetailOrder does not exist\"); // Kim tra xem orderDetail c tn ti khng\r\n        require(_stars[i] >= 1 && _stars[i] <= 5, \"Stars must be between 1 and 5\");\r\n        \r\n        ratingCountPerFood[foodId]++;\r\n        uint newRatingId = ratingCountPerFood[foodId];\r\n        ratings[foodId][newRatingId] = Rating(newRatingId, foodId, msg.sender, _reviews[i], _stars[i]);\r\n\r\n        // Cp nht tng im nh gi\r\n        foods[foodId].totalStars += _stars[i];\r\n        foods[foodId].totalRatings++;\r\n    }\r\n    orders[_idOrder].isReviewed = true;\r\n}\r\n\r\n    \r\n    function placeOrder(Payment _payment,uint[] memory _foodIds, uint[] memory _quantities, bool UsePoint,string memory note) \r\n    public {\r\n        require(_foodIds.length > 0, \"Order must contain at least one food item\");\r\n        require(_foodIds.length == _quantities.length, \"Mismatched array lengths\");\r\n\r\n        uint totalPrice = 0;\r\n        orderCount++;\r\n        uint temp_resId=0;\r\n\r\n\r\n        for (uint i = 0; i < _foodIds.length; i++) {\r\n            require(foods[_foodIds[i]].id != 0, \"Food does not exist\");\r\n            if(temp_resId==0){\r\n                temp_resId=foods[_foodIds[i]].restaurantId;\r\n            }\r\n            require(temp_resId==foods[_foodIds[i]].restaurantId, \"food not from the same restaurant\");\r\n            // Tnh tng gi tin\r\n            uint itemPrice = foods[_foodIds[i]].price * _quantities[i];\r\n            totalPrice += itemPrice;\r\n            orderDetailCount[orderCount]++;\r\n            uint itemIndex = orderDetailCount[orderCount];\r\n            orderDetails[orderCount][itemIndex] = DetailOrder(_foodIds[i], _quantities[i], itemPrice);\r\n        }\r\n\r\n        // p dng im thng nu c\r\n        uint discount = 0;\r\n        if (UsePoint) {\r\n            uint availablePoints = points[msg.sender] ;\r\n            if(availablePoints>50) availablePoints=50;\r\n            discount = totalPrice * availablePoints / 100; // Gim ti a 50%\r\n\r\n            points[msg.sender] -= availablePoints; \r\n        }\r\n        orders[orderCount] = Order(orderCount,temp_resId, msg.sender,discount, totalPrice-discount, \r\n        OrderStatus.Pending,_payment,false,false,note);\r\n        points[msg.sender] += 1; \r\n    }\r\n\r\n    function updateOrderStatus(uint _orderId, OrderStatus _status) public {\r\n        require(orders[_orderId].id != 0, \"Order does not exist\");\r\n        require(uint(_status) > uint(orders[_orderId].status), \"Invalid status transition\");\r\n\r\n        address restaurantOwner = restaurants[orders[_orderId].restaurantId].owner;\r\n        require(msg.sender == restaurantOwner || msg.sender == beneficiary, \"Only restaurant owner or beneficiary can update status\");\r\n        \r\n        // Nu phng thc thanh ton l Ewallet th phi kim tra isPay\r\n        if (orders[_orderId].payment == Payment.Ewallet) {\r\n            require(orders[_orderId].isPay, \"Payment must be completed for Ewallet orders\");\r\n        }\r\n        \r\n        orders[_orderId].status = _status;\r\n        emit OrderStatusUpdated(_orderId,  orders[_orderId].customer,_status);\r\n    }\r\n\r\n    \r\n    function sendMessage(address _receiver, string memory _message) public {\r\n        emit MessageSent(msg.sender, _receiver, _message);\r\n    }\r\n    \r\n    function getAllRestaurants() public view returns (Restaurant[] memory) {\r\n        Restaurant[] memory allRestaurants = new Restaurant[](restaurantCount);\r\n        for (uint i = 1; i <= restaurantCount; i++) {\r\n            allRestaurants[i - 1] = restaurants[i];\r\n        }\r\n        return allRestaurants;\r\n    }\r\n\r\n    function getAllFoods() public view returns (Food[] memory) {\r\n        Food[] memory allFoods = new Food[](foodCount);\r\n        for (uint i = 1; i <= foodCount; i++) {\r\n            allFoods[i - 1] = foods[i];\r\n        }\r\n        return allFoods;\r\n    }\r\n\r\n    \r\n    function getAllCategory() public view returns (FoodCategory[] memory) {\r\n        FoodCategory[] memory allCate = new FoodCategory[](categoryCount);\r\n        for (uint i = 1; i <= categoryCount; i++) {\r\n            allCate[i - 1] = categories[i];\r\n        }\r\n        return allCate;\r\n    }\r\n\r\n\r\nfunction getOrdersBySender() public view returns (Order[] memory) {\r\n\r\n        uint count = 0;\r\n\r\n        // m s lng n hng ca sender\r\n        for (uint i = 1; i <= orderCount; i++) {\r\n            if (orders[i].customer == msg.sender) {\r\n                count++;\r\n            }\r\n        }\r\n\r\n        // To mng kt qu\r\n        Order[] memory senderOrders = new Order[](count);\r\n        uint index = 0;\r\n        for (uint i = 1; i <= orderCount; i++) {\r\n            if (orders[i].customer == msg.sender) {\r\n                senderOrders[index] = orders[i];\r\n                index++;\r\n            }\r\n        }\r\n\r\n        return senderOrders;\r\n    }\r\n\r\n\r\n    function getOrderDetails(uint _orderId) public view returns (DetailOrder[] memory) {\r\n        uint itemCount = orderDetailCount[_orderId];\r\n        DetailOrder[] memory items = new DetailOrder[](itemCount);\r\n\r\n        for (uint i = 0; i < itemCount; i++) {\r\n            items[i] = orderDetails[_orderId][i+1];\r\n        }\r\n\r\n        return items;\r\n    }\r\n\r\n    function getRatingsForFood(uint _foodId) public view returns (Rating[] memory) {\r\n        require(foods[_foodId].id != 0, \"Food does not exist\");\r\n\r\n        uint count = ratingCountPerFood[_foodId];\r\n        Rating[] memory foodRatings = new Rating[](count);\r\n        \r\n        for (uint i = 0; i < count; i++) {\r\n            foodRatings[i] = ratings[_foodId][i+1];\r\n        }\r\n        \r\n        return foodRatings;\r\n    }\r\n\r\n    function searchRestaurants(\r\n        string memory _keyword\r\n    ) public view returns (Restaurant[] memory) {\r\n        Restaurant[] memory tempResults = new Restaurant[](restaurantCount);\r\n        uint count = 0;\r\n\r\n        for (uint i = 1; i <= restaurantCount; i++) {\r\n            string memory fullLocation = string(\r\n                abi.encodePacked(\r\n                    restaurants[i].street, \" \", \r\n                    restaurants[i].ward, \" \", \r\n                    restaurants[i].district, \" \", \r\n                    restaurants[i].city\r\n                )\r\n            );\r\n\r\n            if (\r\n                (_contains(restaurants[i].name, _keyword) ||\r\n                _contains(fullLocation, _keyword))\r\n            ) {\r\n                tempResults[count] = restaurants[i];\r\n                count++;\r\n            }\r\n        }\r\n\r\n        // To mt mng ng kch thc  tr v\r\n        Restaurant[] memory results = new Restaurant[](count);\r\n        for (uint j = 0; j < count; j++) {\r\n            results[j] = tempResults[j];\r\n        }\r\n        return results;\r\n    }\r\n\r\n    function searchFood(\r\n        string memory _keyword\r\n    ) public view returns (Food[] memory) {\r\n        Food[] memory tempResults = new Food[](foodCount);\r\n        uint count = 0;\r\n\r\n        for (uint i = 1; i <= foodCount; i++) {\r\n            if (\r\n                (_contains(foods[i].name, _keyword) ||\r\n                _contains(categories[foods[i].categoryId].name, _keyword))\r\n            ) {\r\n                tempResults[count] = foods[i];\r\n                count++;\r\n            }\r\n        }\r\n\r\n        // To mt mng ng kch thc  tr v\r\n        Food[] memory results = new Food[](count);\r\n        for (uint j = 0; j < count; j++) {\r\n            results[j] = tempResults[j];\r\n        }\r\n        return results;\r\n    }\r\n\r\n    function _contains(string memory _str, string memory _keyword) internal pure returns (bool) {\r\n        bytes memory strBytes = bytes(_str);\r\n        bytes memory keywordBytes = bytes(_keyword);\r\n        \r\n        if (keywordBytes.length > strBytes.length) return false;\r\n\r\n        for (uint i = 0; i <= strBytes.length - keywordBytes.length; i++) {\r\n            bool found = true;\r\n            for (uint j = 0; j < keywordBytes.length; j++) {\r\n                if (strBytes[i + j] != keywordBytes[j]) {\r\n                    found = false;\r\n                    break;\r\n                }\r\n            }\r\n            if (found) return true;\r\n        }\r\n        return false;\r\n    }\r\n\r\n    function getAllOrders() public view returns (Order[] memory) {\r\n    Order[] memory allOrders = new Order[](orderCount);\r\n    for (uint i = 1; i <= orderCount; i++) {\r\n        allOrders[i - 1] = orders[i];\r\n    }\r\n    return allOrders;\r\n\r\n    // function filterFoods(\r\n    //     uint _minPrice, \r\n    //     uint _maxPrice, \r\n    //     uint _categoryId, \r\n    //     uint _minRating, \r\n    //     bool _isVegan, \r\n    //     bool _isGlutenFree\r\n    // ) public view returns (Food[] memory) {\r\n    //     Food[] memory tempFoods = new Food[](foodCount);\r\n    //     uint count = 0;\r\n\r\n    //     for (uint i = 1; i <= foodCount; i++) {\r\n    //         Food storage food = foods[i];\r\n    //         uint avgRating = (food.totalRatings > 0) ? (food.totalStars / food.totalRatings) : 0;\r\n\r\n    //         // Kim tra iu kin lc\r\n    //         bool matchesCategory = (_categoryId == 0 || food.categoryId == _categoryId);\r\n    //         bool matchesPrice = (food.price >= _minPrice && food.price <= _maxPrice);\r\n    //         bool matchesRating = (avgRating >= _minRating);\r\n    //         bool matchesVegan = (!_isVegan || food.isVegan);\r\n    //         bool matchesGlutenFree = (!_isGlutenFree || food.isGlutenFree);\r\n\r\n    //         if (matchesCategory && matchesPrice && matchesRating && matchesVegan && matchesGlutenFree) {\r\n    //             tempFoods[count] = food;\r\n    //             count++;\r\n    //         }\r\n    //     }\r\n\r\n    //     // To mng kt qu c kch thc ng\r\n    //     Food[] memory filteredFoods = new Food[](count);\r\n    //     for (uint j = 0; j < count; j++) {\r\n    //         filteredFoods[j] = tempFoods[j];\r\n    //     }\r\n\r\n    //     return filteredFoods;\r\n    // }\r\n\r\n}\r\n\r\n}",
  "sourcePath": "D:\\Bebank\\Bookfood\\frontend\\contracts\\Bookfood.sol",
  "compiler": {
    "name": "solc",
    "version": "0.8.19+commit.7dd6d404.Emscripten.clang"
  },
  "schemaVersion": "3.4.16",
  "updatedAt": "2025-03-17T03:13:44.095Z",
  "devdoc": {
    "kind": "dev",
    "methods": {},
    "version": 1
  },
  "userdoc": {
    "kind": "user",
    "methods": {},
    "version": 1
  }
}