{
  "contractName": "Bookfood",
  "abi": [
    {
      "inputs": [
        {
          "internalType": "address payable",
          "name": "_beneficiary",
          "type": "address"
        }
      ],
      "stateMutability": "nonpayable",
      "type": "constructor"
    },
    {
      "anonymous": false,
      "inputs": [
        {
          "indexed": true,
          "internalType": "address",
          "name": "sender",
          "type": "address"
        },
        {
          "indexed": true,
          "internalType": "address",
          "name": "receiver",
          "type": "address"
        },
        {
          "indexed": false,
          "internalType": "string",
          "name": "message",
          "type": "string"
        }
      ],
      "name": "MessageSent",
      "type": "event"
    },
    {
      "anonymous": false,
      "inputs": [
        {
          "indexed": false,
          "internalType": "uint256",
          "name": "orderId",
          "type": "uint256"
        },
        {
          "indexed": true,
          "internalType": "address",
          "name": "customer",
          "type": "address"
        },
        {
          "indexed": false,
          "internalType": "enum Bookfood.OrderStatus",
          "name": "status",
          "type": "uint8"
        }
      ],
      "name": "OrderStatusUpdated",
      "type": "event"
    },
    {
      "inputs": [],
      "name": "beneficiary",
      "outputs": [
        {
          "internalType": "address payable",
          "name": "",
          "type": "address"
        }
      ],
      "stateMutability": "view",
      "type": "function",
      "constant": true
    },
    {
      "inputs": [
        {
          "internalType": "uint256",
          "name": "",
          "type": "uint256"
        }
      ],
      "name": "categories",
      "outputs": [
        {
          "internalType": "uint256",
          "name": "id",
          "type": "uint256"
        },
        {
          "internalType": "string",
          "name": "name",
          "type": "string"
        }
      ],
      "stateMutability": "view",
      "type": "function",
      "constant": true
    },
    {
      "inputs": [
        {
          "internalType": "uint256",
          "name": "",
          "type": "uint256"
        }
      ],
      "name": "foods",
      "outputs": [
        {
          "internalType": "uint256",
          "name": "id",
          "type": "uint256"
        },
        {
          "internalType": "string",
          "name": "name",
          "type": "string"
        },
        {
          "internalType": "uint256",
          "name": "restaurantId",
          "type": "uint256"
        },
        {
          "internalType": "uint256",
          "name": "categoryId",
          "type": "uint256"
        },
        {
          "internalType": "uint256",
          "name": "price",
          "type": "uint256"
        },
        {
          "internalType": "bool",
          "name": "isVegan",
          "type": "bool"
        },
        {
          "internalType": "bool",
          "name": "isGlutenFree",
          "type": "bool"
        },
        {
          "internalType": "uint256",
          "name": "totalStars",
          "type": "uint256"
        },
        {
          "internalType": "uint256",
          "name": "totalRatings",
          "type": "uint256"
        }
      ],
      "stateMutability": "view",
      "type": "function",
      "constant": true
    },
    {
      "inputs": [
        {
          "internalType": "uint256",
          "name": "",
          "type": "uint256"
        }
      ],
      "name": "orderDetailCount",
      "outputs": [
        {
          "internalType": "uint256",
          "name": "",
          "type": "uint256"
        }
      ],
      "stateMutability": "view",
      "type": "function",
      "constant": true
    },
    {
      "inputs": [
        {
          "internalType": "uint256",
          "name": "",
          "type": "uint256"
        },
        {
          "internalType": "uint256",
          "name": "",
          "type": "uint256"
        }
      ],
      "name": "orderDetails",
      "outputs": [
        {
          "internalType": "uint256",
          "name": "foodId",
          "type": "uint256"
        },
        {
          "internalType": "uint256",
          "name": "quantity",
          "type": "uint256"
        },
        {
          "internalType": "uint256",
          "name": "price",
          "type": "uint256"
        }
      ],
      "stateMutability": "view",
      "type": "function",
      "constant": true
    },
    {
      "inputs": [
        {
          "internalType": "uint256",
          "name": "",
          "type": "uint256"
        }
      ],
      "name": "orders",
      "outputs": [
        {
          "internalType": "uint256",
          "name": "id",
          "type": "uint256"
        },
        {
          "internalType": "address",
          "name": "customer",
          "type": "address"
        },
        {
          "internalType": "uint256",
          "name": "discount",
          "type": "uint256"
        },
        {
          "internalType": "uint256",
          "name": "totalPrice",
          "type": "uint256"
        },
        {
          "internalType": "enum Bookfood.OrderStatus",
          "name": "status",
          "type": "uint8"
        },
        {
          "internalType": "enum Bookfood.Payment",
          "name": "payment",
          "type": "uint8"
        },
        {
          "internalType": "bool",
          "name": "isReviewed",
          "type": "bool"
        },
        {
          "internalType": "bool",
          "name": "isPay",
          "type": "bool"
        },
        {
          "internalType": "string",
          "name": "note",
          "type": "string"
        }
      ],
      "stateMutability": "view",
      "type": "function",
      "constant": true
    },
    {
      "inputs": [
        {
          "internalType": "address",
          "name": "",
          "type": "address"
        }
      ],
      "name": "points",
      "outputs": [
        {
          "internalType": "uint256",
          "name": "",
          "type": "uint256"
        }
      ],
      "stateMutability": "view",
      "type": "function",
      "constant": true
    },
    {
      "inputs": [
        {
          "internalType": "uint256",
          "name": "",
          "type": "uint256"
        }
      ],
      "name": "ratingCountPerFood",
      "outputs": [
        {
          "internalType": "uint256",
          "name": "",
          "type": "uint256"
        }
      ],
      "stateMutability": "view",
      "type": "function",
      "constant": true
    },
    {
      "inputs": [
        {
          "internalType": "uint256",
          "name": "",
          "type": "uint256"
        },
        {
          "internalType": "uint256",
          "name": "",
          "type": "uint256"
        }
      ],
      "name": "ratings",
      "outputs": [
        {
          "internalType": "uint256",
          "name": "id",
          "type": "uint256"
        },
        {
          "internalType": "uint256",
          "name": "foodId",
          "type": "uint256"
        },
        {
          "internalType": "address",
          "name": "user",
          "type": "address"
        },
        {
          "internalType": "string",
          "name": "review",
          "type": "string"
        },
        {
          "internalType": "uint256",
          "name": "stars",
          "type": "uint256"
        }
      ],
      "stateMutability": "view",
      "type": "function",
      "constant": true
    },
    {
      "inputs": [
        {
          "internalType": "uint256",
          "name": "",
          "type": "uint256"
        }
      ],
      "name": "restaurants",
      "outputs": [
        {
          "internalType": "uint256",
          "name": "id",
          "type": "uint256"
        },
        {
          "internalType": "string",
          "name": "name",
          "type": "string"
        },
        {
          "internalType": "string",
          "name": "houseNumber",
          "type": "string"
        },
        {
          "internalType": "string",
          "name": "street",
          "type": "string"
        },
        {
          "internalType": "string",
          "name": "ward",
          "type": "string"
        },
        {
          "internalType": "string",
          "name": "district",
          "type": "string"
        },
        {
          "internalType": "string",
          "name": "city",
          "type": "string"
        },
        {
          "internalType": "address",
          "name": "owner",
          "type": "address"
        }
      ],
      "stateMutability": "view",
      "type": "function",
      "constant": true
    },
    {
      "inputs": [
        {
          "internalType": "uint256",
          "name": "_orderId",
          "type": "uint256"
        }
      ],
      "name": "processPayment",
      "outputs": [],
      "stateMutability": "payable",
      "type": "function",
      "payable": true
    },
    {
      "inputs": [
        {
          "internalType": "string",
          "name": "_name",
          "type": "string"
        },
        {
          "internalType": "string",
          "name": "_houseNumber",
          "type": "string"
        },
        {
          "internalType": "string",
          "name": "_street",
          "type": "string"
        },
        {
          "internalType": "string",
          "name": "_ward",
          "type": "string"
        },
        {
          "internalType": "string",
          "name": "_district",
          "type": "string"
        },
        {
          "internalType": "string",
          "name": "_city",
          "type": "string"
        },
        {
          "internalType": "address",
          "name": "_owner",
          "type": "address"
        }
      ],
      "name": "addRestaurant",
      "outputs": [],
      "stateMutability": "nonpayable",
      "type": "function"
    },
    {
      "inputs": [
        {
          "internalType": "string",
          "name": "_name",
          "type": "string"
        }
      ],
      "name": "addCategory",
      "outputs": [],
      "stateMutability": "nonpayable",
      "type": "function"
    },
    {
      "inputs": [
        {
          "internalType": "string",
          "name": "_name",
          "type": "string"
        },
        {
          "internalType": "uint256",
          "name": "_restaurantId",
          "type": "uint256"
        },
        {
          "internalType": "uint256",
          "name": "_categoryId",
          "type": "uint256"
        },
        {
          "internalType": "uint256",
          "name": "_price",
          "type": "uint256"
        },
        {
          "internalType": "bool",
          "name": "_isVegan",
          "type": "bool"
        },
        {
          "internalType": "bool",
          "name": "_isGlutenFree",
          "type": "bool"
        }
      ],
      "name": "addFood",
      "outputs": [],
      "stateMutability": "nonpayable",
      "type": "function"
    },
    {
      "inputs": [
        {
          "internalType": "uint256",
          "name": "_idOrder",
          "type": "uint256"
        },
        {
          "internalType": "string[]",
          "name": "_reviews",
          "type": "string[]"
        },
        {
          "internalType": "uint256[]",
          "name": "_stars",
          "type": "uint256[]"
        }
      ],
      "name": "addRating",
      "outputs": [],
      "stateMutability": "nonpayable",
      "type": "function"
    },
    {
      "inputs": [
        {
          "internalType": "enum Bookfood.Payment",
          "name": "_payment",
          "type": "uint8"
        },
        {
          "internalType": "uint256[]",
          "name": "_foodIds",
          "type": "uint256[]"
        },
        {
          "internalType": "uint256[]",
          "name": "_quantities",
          "type": "uint256[]"
        },
        {
          "internalType": "bool",
          "name": "UsePoint",
          "type": "bool"
        },
        {
          "internalType": "string",
          "name": "note",
          "type": "string"
        }
      ],
      "name": "placeOrder",
      "outputs": [],
      "stateMutability": "nonpayable",
      "type": "function"
    },
    {
      "inputs": [
        {
          "internalType": "uint256",
          "name": "_orderId",
          "type": "uint256"
        },
        {
          "internalType": "enum Bookfood.OrderStatus",
          "name": "_status",
          "type": "uint8"
        }
      ],
      "name": "updateOrderStatus",
      "outputs": [],
      "stateMutability": "nonpayable",
      "type": "function"
    },
    {
      "inputs": [
        {
          "internalType": "address",
          "name": "_receiver",
          "type": "address"
        },
        {
          "internalType": "string",
          "name": "_message",
          "type": "string"
        }
      ],
      "name": "sendMessage",
      "outputs": [],
      "stateMutability": "nonpayable",
      "type": "function"
    },
    {
      "inputs": [],
      "name": "getAllRestaurants",
      "outputs": [
        {
          "components": [
            {
              "internalType": "uint256",
              "name": "id",
              "type": "uint256"
            },
            {
              "internalType": "string",
              "name": "name",
              "type": "string"
            },
            {
              "internalType": "string",
              "name": "houseNumber",
              "type": "string"
            },
            {
              "internalType": "string",
              "name": "street",
              "type": "string"
            },
            {
              "internalType": "string",
              "name": "ward",
              "type": "string"
            },
            {
              "internalType": "string",
              "name": "district",
              "type": "string"
            },
            {
              "internalType": "string",
              "name": "city",
              "type": "string"
            },
            {
              "internalType": "address",
              "name": "owner",
              "type": "address"
            }
          ],
          "internalType": "struct Bookfood.Restaurant[]",
          "name": "",
          "type": "tuple[]"
        }
      ],
      "stateMutability": "view",
      "type": "function",
      "constant": true
    },
    {
      "inputs": [],
      "name": "getAllFoods",
      "outputs": [
        {
          "components": [
            {
              "internalType": "uint256",
              "name": "id",
              "type": "uint256"
            },
            {
              "internalType": "string",
              "name": "name",
              "type": "string"
            },
            {
              "internalType": "uint256",
              "name": "restaurantId",
              "type": "uint256"
            },
            {
              "internalType": "uint256",
              "name": "categoryId",
              "type": "uint256"
            },
            {
              "internalType": "uint256",
              "name": "price",
              "type": "uint256"
            },
            {
              "internalType": "bool",
              "name": "isVegan",
              "type": "bool"
            },
            {
              "internalType": "bool",
              "name": "isGlutenFree",
              "type": "bool"
            },
            {
              "internalType": "uint256",
              "name": "totalStars",
              "type": "uint256"
            },
            {
              "internalType": "uint256",
              "name": "totalRatings",
              "type": "uint256"
            }
          ],
          "internalType": "struct Bookfood.Food[]",
          "name": "",
          "type": "tuple[]"
        }
      ],
      "stateMutability": "view",
      "type": "function",
      "constant": true
    },
    {
      "inputs": [],
      "name": "getAllCategory",
      "outputs": [
        {
          "components": [
            {
              "internalType": "uint256",
              "name": "id",
              "type": "uint256"
            },
            {
              "internalType": "string",
              "name": "name",
              "type": "string"
            }
          ],
          "internalType": "struct Bookfood.FoodCategory[]",
          "name": "",
          "type": "tuple[]"
        }
      ],
      "stateMutability": "view",
      "type": "function",
      "constant": true
    },
    {
      "inputs": [],
      "name": "getOrdersBySender",
      "outputs": [
        {
          "components": [
            {
              "internalType": "uint256",
              "name": "id",
              "type": "uint256"
            },
            {
              "internalType": "address",
              "name": "customer",
              "type": "address"
            },
            {
              "internalType": "uint256",
              "name": "discount",
              "type": "uint256"
            },
            {
              "internalType": "uint256",
              "name": "totalPrice",
              "type": "uint256"
            },
            {
              "internalType": "enum Bookfood.OrderStatus",
              "name": "status",
              "type": "uint8"
            },
            {
              "internalType": "enum Bookfood.Payment",
              "name": "payment",
              "type": "uint8"
            },
            {
              "internalType": "bool",
              "name": "isReviewed",
              "type": "bool"
            },
            {
              "internalType": "bool",
              "name": "isPay",
              "type": "bool"
            },
            {
              "internalType": "string",
              "name": "note",
              "type": "string"
            }
          ],
          "internalType": "struct Bookfood.Order[]",
          "name": "",
          "type": "tuple[]"
        }
      ],
      "stateMutability": "view",
      "type": "function",
      "constant": true
    },
    {
      "inputs": [
        {
          "internalType": "uint256",
          "name": "_orderId",
          "type": "uint256"
        }
      ],
      "name": "getOrderDetails",
      "outputs": [
        {
          "components": [
            {
              "internalType": "uint256",
              "name": "foodId",
              "type": "uint256"
            },
            {
              "internalType": "uint256",
              "name": "quantity",
              "type": "uint256"
            },
            {
              "internalType": "uint256",
              "name": "price",
              "type": "uint256"
            }
          ],
          "internalType": "struct Bookfood.DetailOrder[]",
          "name": "",
          "type": "tuple[]"
        }
      ],
      "stateMutability": "view",
      "type": "function",
      "constant": true
    },
    {
      "inputs": [
        {
          "internalType": "uint256",
          "name": "_foodId",
          "type": "uint256"
        }
      ],
      "name": "getRatingsForFood",
      "outputs": [
        {
          "components": [
            {
              "internalType": "uint256",
              "name": "id",
              "type": "uint256"
            },
            {
              "internalType": "uint256",
              "name": "foodId",
              "type": "uint256"
            },
            {
              "internalType": "address",
              "name": "user",
              "type": "address"
            },
            {
              "internalType": "string",
              "name": "review",
              "type": "string"
            },
            {
              "internalType": "uint256",
              "name": "stars",
              "type": "uint256"
            }
          ],
          "internalType": "struct Bookfood.Rating[]",
          "name": "",
          "type": "tuple[]"
        }
      ],
      "stateMutability": "view",
      "type": "function",
      "constant": true
    },
    {
      "inputs": [
        {
          "internalType": "string",
          "name": "_keyword",
          "type": "string"
        }
      ],
      "name": "searchRestaurants",
      "outputs": [
        {
          "components": [
            {
              "internalType": "uint256",
              "name": "id",
              "type": "uint256"
            },
            {
              "internalType": "string",
              "name": "name",
              "type": "string"
            },
            {
              "internalType": "string",
              "name": "houseNumber",
              "type": "string"
            },
            {
              "internalType": "string",
              "name": "street",
              "type": "string"
            },
            {
              "internalType": "string",
              "name": "ward",
              "type": "string"
            },
            {
              "internalType": "string",
              "name": "district",
              "type": "string"
            },
            {
              "internalType": "string",
              "name": "city",
              "type": "string"
            },
            {
              "internalType": "address",
              "name": "owner",
              "type": "address"
            }
          ],
          "internalType": "struct Bookfood.Restaurant[]",
          "name": "",
          "type": "tuple[]"
        }
      ],
      "stateMutability": "view",
      "type": "function",
      "constant": true
    },
    {
      "inputs": [
        {
          "internalType": "string",
          "name": "_keyword",
          "type": "string"
        }
      ],
      "name": "searchFood",
      "outputs": [
        {
          "components": [
            {
              "internalType": "uint256",
              "name": "id",
              "type": "uint256"
            },
            {
              "internalType": "string",
              "name": "name",
              "type": "string"
            },
            {
              "internalType": "uint256",
              "name": "restaurantId",
              "type": "uint256"
            },
            {
              "internalType": "uint256",
              "name": "categoryId",
              "type": "uint256"
            },
            {
              "internalType": "uint256",
              "name": "price",
              "type": "uint256"
            },
            {
              "internalType": "bool",
              "name": "isVegan",
              "type": "bool"
            },
            {
              "internalType": "bool",
              "name": "isGlutenFree",
              "type": "bool"
            },
            {
              "internalType": "uint256",
              "name": "totalStars",
              "type": "uint256"
            },
            {
              "internalType": "uint256",
              "name": "totalRatings",
              "type": "uint256"
            }
          ],
          "internalType": "struct Bookfood.Food[]",
          "name": "",
          "type": "tuple[]"
        }
      ],
      "stateMutability": "view",
      "type": "function",
      "constant": true
    },
    {
      "inputs": [],
      "name": "getAllOrders",
      "outputs": [
        {
          "components": [
            {
              "internalType": "uint256",
              "name": "id",
              "type": "uint256"
            },
            {
              "internalType": "address",
              "name": "customer",
              "type": "address"
            },
            {
              "internalType": "uint256",
              "name": "discount",
              "type": "uint256"
            },
            {
              "internalType": "uint256",
              "name": "totalPrice",
              "type": "uint256"
            },
            {
              "internalType": "enum Bookfood.OrderStatus",
              "name": "status",
              "type": "uint8"
            },
            {
              "internalType": "enum Bookfood.Payment",
              "name": "payment",
              "type": "uint8"
            },
            {
              "internalType": "bool",
              "name": "isReviewed",
              "type": "bool"
            },
            {
              "internalType": "bool",
              "name": "isPay",
              "type": "bool"
            },
            {
              "internalType": "string",
              "name": "note",
              "type": "string"
            }
          ],
          "internalType": "struct Bookfood.Order[]",
          "name": "",
          "type": "tuple[]"
        }
      ],
      "stateMutability": "view",
      "type": "function",
      "constant": true
    }
  ],
  "bytecode": "0x60806040523480156200001157600080fd5b50604051620045783803806200457883398101604081905262000034916200005a565b600980546001600160a01b0319166001600160a01b03929092169190911790556200008c565b6000602082840312156200006d57600080fd5b81516001600160a01b03811681146200008557600080fd5b9392505050565b6144dc806200009c6000396000f3fe60806040526004361061019c5760003560e01c8063a85c38ef116100ec578063c6cdbe5e1161008a578063de6f24bb11610064578063de6f24bb14610526578063e7253aa914610546578063e9d8ba4714610573578063ec7dd7bb146105d557600080fd5b8063c6cdbe5e146104c3578063ce31a684146104f1578063d21d6f151461050657600080fd5b8063ad71acbd116100c6578063ad71acbd1461044e578063b42c5e6a1461046e578063b9b5aae61461048e578063c1fa671e146104a357600080fd5b8063a85c38ef146103c5578063aab3196d146103fa578063ad5461d81461041a57600080fd5b8063482ef36011610159578063877344001161013357806387734400146103345780638e434657146103565780638f2c280514610376578063a7e395201461039857600080fd5b8063482ef360146102b45780635ac88c1c146102e55780637bea0d1c1461031257600080fd5b806314d3f10e146101a15780632e0dcbf7146101df578063302355bd14610201578063358b81661461023c57806338af3eed146102695780633a2f8485146102a1575b600080fd5b3480156101ad57600080fd5b506101c16101bc3660046135f3565b610602565b6040516101d699989796959493929190613652565b60405180910390f35b3480156101eb57600080fd5b506101ff6101fa36600461375c565b6106d9565b005b34801561020d57600080fd5b5061022e61021c3660046135f3565b60066020526000908152604090205481565b6040519081526020016101d6565b34801561024857600080fd5b5061022e6102573660046137b4565b60086020526000908152604090205481565b34801561027557600080fd5b50600954610289906001600160a01b031681565b6040516001600160a01b0390911681526020016101d6565b6101ff6102af3660046135f3565b610730565b3480156102c057600080fd5b506102d46102cf3660046137d6565b61083e565b6040516101d69594939291906137f8565b3480156102f157600080fd5b5061022e6103003660046135f3565b60036020526000908152604090205481565b34801561031e57600080fd5b50610327610909565b6040516101d6919061387b565b34801561034057600080fd5b50610349610b23565b6040516101d6919061395c565b34801561036257600080fd5b506101ff610371366004613a69565b610f66565b34801561038257600080fd5b5061038b6110db565b6040516101d69190613b6f565b3480156103a457600080fd5b506103b86103b336600461375c565b611244565b6040516101d69190613bd5565b3480156103d157600080fd5b506103e56103e03660046135f3565b61158a565b6040516101d699989796959493929190613c8a565b34801561040657600080fd5b506101ff610415366004613d0d565b611678565b34801561042657600080fd5b5061043a6104353660046135f3565b611891565b6040516101d6989796959493929190613d3d565b34801561045a57600080fd5b5061034961046936600461375c565b611c0b565b34801561047a57600080fd5b506101ff610489366004613de9565b6121fc565b34801561049a57600080fd5b506103b8612353565b3480156104af57600080fd5b506101ff6104be366004613ef0565b6124f9565b3480156104cf57600080fd5b506104e36104de3660046135f3565b6128e7565b6040516101d6929190613fce565b3480156104fd57600080fd5b5061032761298c565b34801561051257600080fd5b506101ff610521366004613fe7565b612c20565b34801561053257600080fd5b506101ff610541366004614092565b613089565b34801561055257600080fd5b506105666105613660046135f3565b6130d8565b6040516101d691906140df565b34801561057f57600080fd5b506105ba61058e3660046137d6565b600560209081526000928352604080842090915290825290208054600182015460029092015490919083565b604080519384526020840192909252908201526060016101d6565b3480156105e157600080fd5b506105f56105f03660046135f3565b613302565b6040516101d69190614174565b600160208190526000918252604090912080549181018054610623906141cd565b80601f016020809104026020016040519081016040528092919081815260200182805461064f906141cd565b801561069c5780601f106106715761010080835404028352916020019161069c565b820191906000526020600020905b81548152906001019060200180831161067f57829003601f168201915b505050600284015460038501546004860154600587015460068801546007909801549697939692955090935060ff80821693610100909204169189565b600d80549060006106e983614217565b9091555050604080518082018252600d54808252602080830185815260009283526007909152929020815181559151909190600182019061072a908261427f565b50505050565b600081815260046020526040902060018101546001600160a01b0316331461079f5760405162461bcd60e51b815260206004820152601860248201527f4f6e6c79206f72646572206f776e65722063616e20706179000000000000000060448201526064015b60405180910390fd5b6003810154348111156107eb5760405162461bcd60e51b8152602060048201526014602482015273125b9cdd59999a58da595b9d081c185e5b595b9d60621b6044820152606401610796565b6009546040516001600160a01b039091169082156108fc029083906000818181858888f19350505050158015610825573d6000803e3d6000fd5b5050600401805463ff0000001916630100000017905550565b6002602081815260009384526040808520909152918352912080546001820154928201546003830180549294936001600160a01b0390921692610880906141cd565b80601f01602080910402602001604051908101604052809291908181526020018280546108ac906141cd565b80156108f95780601f106108ce576101008083540402835291602001916108f9565b820191906000526020600020905b8154815290600101906020018083116108dc57829003601f168201915b5050505050908060040154905085565b60606000600c546001600160401b03811115610927576109276136a7565b60405190808252806020026020018201604052801561096057816020015b61094d6134f1565b8152602001906001900390816109455790505b50905060015b600c548111610b1d576000818152600460208181526040928390208351610120810185528154815260018201546001600160a01b0316928101929092526002808201549483019490945260038101546060830152918201549092608084019160ff16908111156109d8576109d8613837565b60028111156109e9576109e9613837565b81526020016004820160019054906101000a900460ff166002811115610a1157610a11613837565b6002811115610a2257610a22613837565b8152600482015460ff62010000820481161515602084015263010000009091041615156040820152600582018054606090920191610a5f906141cd565b80601f0160208091040260200160405190810160405280929190818152602001828054610a8b906141cd565b8015610ad85780601f10610aad57610100808354040283529160200191610ad8565b820191906000526020600020905b815481529060010190602001808311610abb57829003601f168201915b50505050508152505082600183610aef919061433e565b81518110610aff57610aff614351565b60200260200101819052508080610b1590614217565b915050610966565b50919050565b60606000600a546001600160401b03811115610b4157610b416136a7565b604051908082528060200260200182016040528015610b7a57816020015b610b67613555565b815260200190600190039081610b5f5790505b50905060015b600a548111610b1d576000818152602081815260409182902082516101008101909352805483526001810180549192840191610bbb906141cd565b80601f0160208091040260200160405190810160405280929190818152602001828054610be7906141cd565b8015610c345780601f10610c0957610100808354040283529160200191610c34565b820191906000526020600020905b815481529060010190602001808311610c1757829003601f168201915b50505050508152602001600282018054610c4d906141cd565b80601f0160208091040260200160405190810160405280929190818152602001828054610c79906141cd565b8015610cc65780601f10610c9b57610100808354040283529160200191610cc6565b820191906000526020600020905b815481529060010190602001808311610ca957829003601f168201915b50505050508152602001600382018054610cdf906141cd565b80601f0160208091040260200160405190810160405280929190818152602001828054610d0b906141cd565b8015610d585780601f10610d2d57610100808354040283529160200191610d58565b820191906000526020600020905b815481529060010190602001808311610d3b57829003601f168201915b50505050508152602001600482018054610d71906141cd565b80601f0160208091040260200160405190810160405280929190818152602001828054610d9d906141cd565b8015610dea5780601f10610dbf57610100808354040283529160200191610dea565b820191906000526020600020905b815481529060010190602001808311610dcd57829003601f168201915b50505050508152602001600582018054610e03906141cd565b80601f0160208091040260200160405190810160405280929190818152602001828054610e2f906141cd565b8015610e7c5780601f10610e5157610100808354040283529160200191610e7c565b820191906000526020600020905b815481529060010190602001808311610e5f57829003601f168201915b50505050508152602001600682018054610e95906141cd565b80601f0160208091040260200160405190810160405280929190818152602001828054610ec1906141cd565b8015610f0e5780601f10610ee357610100808354040283529160200191610f0e565b820191906000526020600020905b815481529060010190602001808311610ef157829003601f168201915b5050509183525050600791909101546001600160a01b031660209091015282610f3860018461433e565b81518110610f4857610f48614351565b60200260200101819052508080610f5e90614217565b915050610b80565b6001600160a01b038116610fbc5760405162461bcd60e51b815260206004820152601c60248201527f4f776e657220616464726573732063616e6e6f74206265207a65726f000000006044820152606401610796565b600a8054906000610fcc83614217565b90915550506040805161010081018252600a5480825260208083018b81528385018b9052606084018a90526080840189905260a0840188905260c084018790526001600160a01b03861660e0850152600092835290829052929020815181559151909190600182019061103f908261427f565b5060408201516002820190611054908261427f565b5060608201516003820190611069908261427f565b506080820151600482019061107e908261427f565b5060a08201516005820190611093908261427f565b5060c082015160068201906110a8908261427f565b5060e09190910151600790910180546001600160a01b0319166001600160a01b0390921691909117905550505050505050565b60606000600d546001600160401b038111156110f9576110f96136a7565b60405190808252806020026020018201604052801561113f57816020015b6040805180820190915260008152606060208201528152602001906001900390816111175790505b50905060015b600d548111610b1d576007600082815260200190815260200160002060405180604001604052908160008201548152602001600182018054611186906141cd565b80601f01602080910402602001604051908101604052809291908181526020018280546111b2906141cd565b80156111ff5780601f106111d4576101008083540402835291602001916111ff565b820191906000526020600020905b8154815290600101906020018083116111e257829003601f168201915b50505050508152505082600183611216919061433e565b8151811061122657611226614351565b6020026020010181905250808061123c90614217565b915050611145565b60606000600b546001600160401b03811115611262576112626136a7565b60405190808252806020026020018201604052801561129b57816020015b6112886135a3565b8152602001906001900390816112805790505b509050600060015b600b5481116114d5576113546001600083815260200190815260200160002060010180546112d0906141cd565b80601f01602080910402602001604051908101604052809291908181526020018280546112fc906141cd565b80156113495780601f1061131e57610100808354040283529160200191611349565b820191906000526020600020905b81548152906001019060200180831161132c57829003601f168201915b505050505086613410565b8061138a57506000818152600160208181526040808420600301548452600790915290912001805461138a91906112d0906141cd565b156114c35760008181526001602081815260409283902083516101208101909452805484529182018054918401916113c1906141cd565b80601f01602080910402602001604051908101604052809291908181526020018280546113ed906141cd565b801561143a5780601f1061140f5761010080835404028352916020019161143a565b820191906000526020600020905b81548152906001019060200180831161141d57829003601f168201915b5050509183525050600282015460208201526003820154604082015260048201546060820152600582015460ff8082161515608084015261010090910416151560a0820152600682015460c082015260079091015460e09091015283518490849081106114a9576114a9614351565b602002602001018190525081806114bf90614217565b9250505b806114cd81614217565b9150506112a3565b506000816001600160401b038111156114f0576114f06136a7565b60405190808252806020026020018201604052801561152957816020015b6115166135a3565b81526020019060019003908161150e5790505b50905060005b828110156115815783818151811061154957611549614351565b602002602001015182828151811061156357611563614351565b6020026020010181905250808061157990614217565b91505061152f565b50949350505050565b600460208190526000918252604090912080546001820154600283015460038401549484015460058501805494966001600160a01b0390941695929460ff8084169461010085048216946201000081048316946301000000909104909216929091906115f5906141cd565b80601f0160208091040260200160405190810160405280929190818152602001828054611621906141cd565b801561166e5780601f106116435761010080835404028352916020019161166e565b820191906000526020600020905b81548152906001019060200180831161165157829003601f168201915b5050505050905089565b60008281526004602052604081205490036116cc5760405162461bcd60e51b815260206004820152601460248201527313dc99195c88191bd95cc81b9bdd08195e1a5cdd60621b6044820152606401610796565b6000828152600460208190526040909120015460ff1660028111156116f3576116f3613837565b81600281111561170557611705613837565b116117525760405162461bcd60e51b815260206004820152601960248201527f496e76616c696420737461747573207472616e736974696f6e000000000000006044820152606401610796565b600082815260046020819052604082200154610100900460ff16600281111561177d5761177d613837565b0361180057600082815260046020819052604090912001546301000000900460ff166118005760405162461bcd60e51b815260206004820152602c60248201527f5061796d656e74206d75737420626520636f6d706c6574656420666f7220457760448201526b616c6c6574206f726465727360a01b6064820152608401610796565b600082815260046020819052604090912001805482919060ff1916600183600281111561182f5761182f613837565b0217905550600082815260046020526040908190206001015490516001600160a01b03909116907f72dd0d4e3f429b5df521039075b9cc56fe25cd440df6186114f6aa93505a39fa906118859085908590614367565b60405180910390a25050565b600060208190529081526040902080546001820180549192916118b3906141cd565b80601f01602080910402602001604051908101604052809291908181526020018280546118df906141cd565b801561192c5780601f106119015761010080835404028352916020019161192c565b820191906000526020600020905b81548152906001019060200180831161190f57829003601f168201915b505050505090806002018054611941906141cd565b80601f016020809104026020016040519081016040528092919081815260200182805461196d906141cd565b80156119ba5780601f1061198f576101008083540402835291602001916119ba565b820191906000526020600020905b81548152906001019060200180831161199d57829003601f168201915b5050505050908060030180546119cf906141cd565b80601f01602080910402602001604051908101604052809291908181526020018280546119fb906141cd565b8015611a485780601f10611a1d57610100808354040283529160200191611a48565b820191906000526020600020905b815481529060010190602001808311611a2b57829003601f168201915b505050505090806004018054611a5d906141cd565b80601f0160208091040260200160405190810160405280929190818152602001828054611a89906141cd565b8015611ad65780601f10611aab57610100808354040283529160200191611ad6565b820191906000526020600020905b815481529060010190602001808311611ab957829003601f168201915b505050505090806005018054611aeb906141cd565b80601f0160208091040260200160405190810160405280929190818152602001828054611b17906141cd565b8015611b645780601f10611b3957610100808354040283529160200191611b64565b820191906000526020600020905b815481529060010190602001808311611b4757829003601f168201915b505050505090806006018054611b79906141cd565b80601f0160208091040260200160405190810160405280929190818152602001828054611ba5906141cd565b8015611bf25780601f10611bc757610100808354040283529160200191611bf2565b820191906000526020600020905b815481529060010190602001808311611bd557829003601f168201915b505050600790930154919250506001600160a01b031688565b60606000600a546001600160401b03811115611c2957611c296136a7565b604051908082528060200260200182016040528015611c6257816020015b611c4f613555565b815260200190600190039081611c475790505b509050600060015b600a548111612150576000818152602081815260408083209051611ca392600383019260048101926005820192600690920191016143f7565b60408051601f1981840301815291815260008481526020819052206001018054919250611d5791611cd3906141cd565b80601f0160208091040260200160405190810160405280929190818152602001828054611cff906141cd565b8015611d4c5780601f10611d2157610100808354040283529160200191611d4c565b820191906000526020600020905b815481529060010190602001808311611d2f57829003601f168201915b505050505087613410565b80611d675750611d678187613410565b1561213d576000828152602081815260409182902082516101008101909352805483526001810180549192840191611d9e906141cd565b80601f0160208091040260200160405190810160405280929190818152602001828054611dca906141cd565b8015611e175780601f10611dec57610100808354040283529160200191611e17565b820191906000526020600020905b815481529060010190602001808311611dfa57829003601f168201915b50505050508152602001600282018054611e30906141cd565b80601f0160208091040260200160405190810160405280929190818152602001828054611e5c906141cd565b8015611ea95780601f10611e7e57610100808354040283529160200191611ea9565b820191906000526020600020905b815481529060010190602001808311611e8c57829003601f168201915b50505050508152602001600382018054611ec2906141cd565b80601f0160208091040260200160405190810160405280929190818152602001828054611eee906141cd565b8015611f3b5780601f10611f1057610100808354040283529160200191611f3b565b820191906000526020600020905b815481529060010190602001808311611f1e57829003601f168201915b50505050508152602001600482018054611f54906141cd565b80601f0160208091040260200160405190810160405280929190818152602001828054611f80906141cd565b8015611fcd5780601f10611fa257610100808354040283529160200191611fcd565b820191906000526020600020905b815481529060010190602001808311611fb057829003601f168201915b50505050508152602001600582018054611fe6906141cd565b80601f0160208091040260200160405190810160405280929190818152602001828054612012906141cd565b801561205f5780601f106120345761010080835404028352916020019161205f565b820191906000526020600020905b81548152906001019060200180831161204257829003601f168201915b50505050508152602001600682018054612078906141cd565b80601f01602080910402602001604051908101604052809291908181526020018280546120a4906141cd565b80156120f15780601f106120c6576101008083540402835291602001916120f1565b820191906000526020600020905b8154815290600101906020018083116120d457829003601f168201915b5050509183525050600791909101546001600160a01b0316602090910152845185908590811061212357612123614351565b6020026020010181905250828061213990614217565b9350505b508061214881614217565b915050611c6a565b506000816001600160401b0381111561216b5761216b6136a7565b6040519080825280602002602001820160405280156121a457816020015b612191613555565b8152602001906001900390816121895790505b50905060005b82811015611581578381815181106121c4576121c4614351565b60200260200101518282815181106121de576121de614351565b602002602001018190525080806121f490614217565b9150506121aa565b60008581526020819052604081205490036122595760405162461bcd60e51b815260206004820152601960248201527f52657374617572616e7420646f6573206e6f74206578697374000000000000006044820152606401610796565b600b805490600061226983614217565b9190505550604051806101200160405280600b5481526020018781526020018681526020018581526020018481526020018315158152602001821515815260200160008152602001600081525060016000600b5481526020019081526020016000206000820151816000015560208201518160010190816122ea919061427f565b5060408201516002820155606082015160038201556080820151600482015560a082015160058201805460c085015161ffff1990911692151561ff00191692909217610100921515830217905560e0830151600683015590910151600790910155505050505050565b60606000600b546001600160401b03811115612371576123716136a7565b6040519080825280602002602001820160405280156123aa57816020015b6123976135a3565b81526020019060019003908161238f5790505b50905060015b600b548111610b1d5760008181526001602081815260409283902083516101208101909452805484529182018054918401916123eb906141cd565b80601f0160208091040260200160405190810160405280929190818152602001828054612417906141cd565b80156124645780601f1061243957610100808354040283529160200191612464565b820191906000526020600020905b81548152906001019060200180831161244757829003601f168201915b5050509183525050600282015460208201526003820154604082015260048201546060820152600582015460ff8082161515608084015261010090910416151560a0820152600682015460c082015260079091015460e090910152826124cb60018461433e565b815181106124db576124db614351565b602002602001018190525080806124f190614217565b9150506123b0565b80518251146125455760405162461bcd60e51b81526020600482015260186024820152774d69736d617463686564206172726179206c656e6774687360401b6044820152606401610796565b6000838152600460205260409020600101546001600160a01b031633146125ae5760405162461bcd60e51b815260206004820152601f60248201527f4f6e6c79207468652062757965722063616e20616464206120726174696e67006044820152606401610796565b6000838152600460208190526040909120015462010000900460ff16156126175760405162461bcd60e51b815260206004820152601f60248201527f4f6e6c79207468652062757965722063616e20616464206120726174696e67006044820152606401610796565b60005b6000848152600660205260409020548110156128c15760008481526005602052604081208161264a846001614447565b8152602001908152602001600020600001549050806000036126ae5760405162461bcd60e51b815260206004820152601a60248201527f44657461696c4f7264657220646f6573206e6f742065786973740000000000006044820152606401610796565b60018383815181106126c2576126c2614351565b6020026020010151101580156126f2575060058383815181106126e7576126e7614351565b602002602001015111155b61273e5760405162461bcd60e51b815260206004820152601d60248201527f5374617273206d757374206265206265747765656e203120616e6420350000006044820152606401610796565b600081815260036020526040812080549161275883614217565b91905055506000600360008381526020019081526020016000205490506040518060a00160405280828152602001838152602001336001600160a01b031681526020018685815181106127ad576127ad614351565b602002602001015181526020018585815181106127cc576127cc614351565b602090810291909101810151909152600084815260028083526040808320868452845291829020845181559284015160018401559083015190820180546001600160a01b0319166001600160a01b0390921691909117905560608201516003820190612838908261427f565b506080820151816004015590505083838151811061285857612858614351565b60200260200101516001600084815260200190815260200160002060060160008282546128859190614447565b909155505060008281526001602052604081206007018054916128a783614217565b9190505550505080806128b990614217565b91505061261a565b505050600090815260046020819052604090912001805462ff0000191662010000179055565b60076020526000908152604090208054600182018054919291612909906141cd565b80601f0160208091040260200160405190810160405280929190818152602001828054612935906141cd565b80156129825780601f1061295757610100808354040283529160200191612982565b820191906000526020600020905b81548152906001019060200180831161296557829003601f168201915b5050505050905082565b6060600060015b600c5481116129df57600081815260046020526040902060010154336001600160a01b03909116036129cd57816129c981614217565b9250505b806129d781614217565b915050612993565b506000816001600160401b038111156129fa576129fa6136a7565b604051908082528060200260200182016040528015612a3357816020015b612a206134f1565b815260200190600190039081612a185790505b509050600060015b600c548111612c1757600081815260046020526040902060010154336001600160a01b0390911603612c05576000818152600460208181526040928390208351610120810185528154815260018201546001600160a01b0316928101929092526002808201549483019490945260038101546060830152918201549092608084019160ff1690811115612ad057612ad0613837565b6002811115612ae157612ae1613837565b81526020016004820160019054906101000a900460ff166002811115612b0957612b09613837565b6002811115612b1a57612b1a613837565b8152600482015460ff62010000820481161515602084015263010000009091041615156040820152600582018054606090920191612b57906141cd565b80601f0160208091040260200160405190810160405280929190818152602001828054612b83906141cd565b8015612bd05780601f10612ba557610100808354040283529160200191612bd0565b820191906000526020600020905b815481529060010190602001808311612bb357829003601f168201915b505050505081525050838381518110612beb57612beb614351565b60200260200101819052508180612c0190614217565b9250505b80612c0f81614217565b915050612a3b565b50909392505050565b6000845111612c835760405162461bcd60e51b815260206004820152602960248201527f4f72646572206d75737420636f6e7461696e206174206c65617374206f6e6520604482015268666f6f64206974656d60b81b6064820152608401610796565b8251845114612ccf5760405162461bcd60e51b81526020600482015260186024820152774d69736d617463686564206172726179206c656e6774687360401b6044820152606401610796565b600c805460009182612ce083614217565b919050555060005b8551811015612e995760016000878381518110612d0757612d07614351565b6020026020010151815260200190815260200160002060000154600003612d665760405162461bcd60e51b8152602060048201526013602482015272119bdbd908191bd95cc81b9bdd08195e1a5cdd606a1b6044820152606401610796565b6000858281518110612d7a57612d7a614351565b602002602001015160016000898581518110612d9857612d98614351565b6020026020010151815260200190815260200160002060040154612dbc919061445a565b9050612dc88184614447565b600c546000908152600660205260408120805492955090612de883614217565b9190505550600060066000600c5481526020019081526020016000205490506040518060600160405280898581518110612e2457612e24614351565b60200260200101518152602001888581518110612e4357612e43614351565b602090810291909101810151825290810193909352600c54600090815260058452604080822093825292845282902081518155928101516001840155015160029091015580612e9181614217565b915050612ce8565b5060008315612f0057336000908152600860205260409020546032811115612ebf575060325b6064612ecb828561445a565b612ed59190614471565b33600090815260086020526040812080549294508392909190612ef990849061433e565b9091555050505b6040805161012081018252600c54815233602082015290810182905260608101612f2a838561433e565b815260200160008152602001886002811115612f4857612f48613837565b81526000602080830182905260408084018390526060938401889052600c5483526004808352928190208551815591850151600180840180546001600160a01b0319166001600160a01b039093169290921790915590850151600280840191909155938501516003830155608085015192820180549294909260ff191691908490811115612fd857612fd8613837565b021790555060a082015160048201805461ff00191661010083600281111561300257613002613837565b021790555060c082015160048201805460e0850151151563010000000263ff0000001993151562010000029390931663ffff000019909116179190911790556101008201516005820190613056908261427f565b505033600090815260086020526040812080546001935090919061307b908490614447565b909155505050505050505050565b816001600160a01b0316336001600160a01b03167fe2cf7446a11cbcd14cd99ea3a1bb77fb7653a64f4064d660140b5100d001e13c836040516130cc9190614493565b60405180910390a35050565b6000818152600160205260408120546060910361312d5760405162461bcd60e51b8152602060048201526013602482015272119bdbd908191bd95cc81b9bdd08195e1a5cdd606a1b6044820152606401610796565b60008281526003602052604081205490816001600160401b03811115613155576131556136a7565b6040519080825280602002602001820160405280156131c157816020015b6131ae6040518060a00160405280600081526020016000815260200160006001600160a01b0316815260200160608152602001600081525090565b8152602001906001900390816131735790505b50905060005b828110156132fa576000858152600260205260408120906131e9836001614447565b81526020808201929092526040908101600020815160a0810183528154815260018201549381019390935260028101546001600160a01b03169183019190915260038101805460608401919061323e906141cd565b80601f016020809104026020016040519081016040528092919081815260200182805461326a906141cd565b80156132b75780601f1061328c576101008083540402835291602001916132b7565b820191906000526020600020905b81548152906001019060200180831161329a57829003601f168201915b505050505081526020016004820154815250508282815181106132dc576132dc614351565b602002602001018190525080806132f290614217565b9150506131c7565b509392505050565b600081815260066020526040812054606091816001600160401b0381111561332c5761332c6136a7565b60405190808252806020026020018201604052801561338157816020015b61336e60405180606001604052806000815260200160008152602001600081525090565b81526020019060019003908161334a5790505b50905060005b828110156132fa576000858152600560205260408120906133a9836001614447565b815260200190815260200160002060405180606001604052908160008201548152602001600182015481526020016002820154815250508282815181106133f2576133f2614351565b6020026020010181905250808061340890614217565b915050613387565b8151815160009184918491101561342c576000925050506134eb565b60005b8151835161343d919061433e565b81116134e357600160005b83518110156134bc5783818151811061346357613463614351565b01602001516001600160f81b0319168561347d8386614447565b8151811061348d5761348d614351565b01602001516001600160f81b031916146134aa57600091506134bc565b806134b481614217565b915050613448565b5080156134d05760019450505050506134eb565b50806134db81614217565b91505061342f565b506000925050505b92915050565b6040518061012001604052806000815260200160006001600160a01b0316815260200160008152602001600081526020016000600281111561353557613535613837565b815260200160008152600060208201819052604082015260609081015290565b6040518061010001604052806000815260200160608152602001606081526020016060815260200160608152602001606081526020016060815260200160006001600160a01b031681525090565b604051806101200160405280600081526020016060815260200160008152602001600081526020016000815260200160001515815260200160001515815260200160008152602001600081525090565b60006020828403121561360557600080fd5b5035919050565b6000815180845260005b8181101561363257602081850181015186830182015201613616565b506000602082860101526020601f19601f83011685010191505092915050565b60006101208b835280602084015261366c8184018c61360c565b604084019a909a5250506060810196909652608086019490945291151560a0850152151560c084015260e08301526101009091015292915050565b634e487b7160e01b600052604160045260246000fd5b604051601f8201601f191681016001600160401b03811182821017156136e5576136e56136a7565b604052919050565b600082601f8301126136fe57600080fd5b81356001600160401b03811115613717576137176136a7565b61372a601f8201601f19166020016136bd565b81815284602083860101111561373f57600080fd5b816020850160208301376000918101602001919091529392505050565b60006020828403121561376e57600080fd5b81356001600160401b0381111561378457600080fd5b613790848285016136ed565b949350505050565b80356001600160a01b03811681146137af57600080fd5b919050565b6000602082840312156137c657600080fd5b6137cf82613798565b9392505050565b600080604083850312156137e957600080fd5b50508035926020909101359150565b85815284602082015260018060a01b038416604082015260a06060820152600061382560a083018561360c565b90508260808301529695505050505050565b634e487b7160e01b600052602160045260246000fd5b6003811061386b57634e487b7160e01b600052602160045260246000fd5b50565b6138778161384d565b9052565b60006020808301818452808551808352604092508286019150828160051b87010184880160005b8381101561394e57603f19898403018552815180518452878101516001600160a01b03168885015286810151878501526060808201519085015260808082015161012091906138f38288018261386e565b505060a0808301516139078288018261386e565b505060c08281015115159086015260e0808301511515908601526101009182015191850181905261393a8186018361360c565b9689019694505050908601906001016138a2565b509098975050505050505050565b60006020808301818452808551808352604092508286019150828160051b87010184880160005b8381101561394e57603f1989840301855281516101008151855288820151818a8701526139b28287018261360c565b91505087820151858203898701526139ca828261360c565b915050606080830151868303828801526139e4838261360c565b92505050608080830151868303828801526139ff838261360c565b9250505060a08083015186830382880152613a1a838261360c565b9250505060c08083015186830382880152613a35838261360c565b9250505060e0808301519250613a55818701846001600160a01b03169052565b509588019593505090860190600101613983565b600080600080600080600060e0888a031215613a8457600080fd5b87356001600160401b0380821115613a9b57600080fd5b613aa78b838c016136ed565b985060208a0135915080821115613abd57600080fd5b613ac98b838c016136ed565b975060408a0135915080821115613adf57600080fd5b613aeb8b838c016136ed565b965060608a0135915080821115613b0157600080fd5b613b0d8b838c016136ed565b955060808a0135915080821115613b2357600080fd5b613b2f8b838c016136ed565b945060a08a0135915080821115613b4557600080fd5b50613b528a828b016136ed565b925050613b6160c08901613798565b905092959891949750929550565b60006020808301818452808551808352604092508286019150828160051b87010184880160005b8381101561394e57888303603f19018552815180518452870151878401879052613bc28785018261360c565b9588019593505090860190600101613b96565b60006020808301818452808551808352604092508286019150828160051b87010184880160005b8381101561394e57603f1989840301855281516101208151855288820151818a870152613c2b8287018261360c565b89840151878b0152606080850151908801526080808501519088015260a08085015115159088015260c08085015115159088015260e0808501519088015261010093840151939096019290925250509386019390860190600101613bfc565b8981526001600160a01b038916602082015260408101889052606081018790526000610120613cb88861384d565b876080840152613cc78761384d565b8660a084015285151560c084015284151560e084015280610100840152613cf08184018561360c565b9c9b505050505050505050505050565b6003811061386b57600080fd5b60008060408385031215613d2057600080fd5b823591506020830135613d3281613d00565b809150509250929050565b60006101008a8352806020840152613d578184018b61360c565b90508281036040840152613d6b818a61360c565b90508281036060840152613d7f818961360c565b90508281036080840152613d93818861360c565b905082810360a0840152613da7818761360c565b905082810360c0840152613dbb818661360c565b91505060018060a01b03831660e08301529998505050505050505050565b803580151581146137af57600080fd5b60008060008060008060c08789031215613e0257600080fd5b86356001600160401b03811115613e1857600080fd5b613e2489828a016136ed565b965050602087013594506040870135935060608701359250613e4860808801613dd9565b9150613e5660a08801613dd9565b90509295509295509295565b60006001600160401b03821115613e7b57613e7b6136a7565b5060051b60200190565b600082601f830112613e9657600080fd5b81356020613eab613ea683613e62565b6136bd565b82815260059290921b84018101918181019086841115613eca57600080fd5b8286015b84811015613ee55780358352918301918301613ece565b509695505050505050565b600080600060608486031215613f0557600080fd5b833592506020808501356001600160401b0380821115613f2457600080fd5b818701915087601f830112613f3857600080fd5b8135613f46613ea682613e62565b81815260059190911b8301840190848101908a831115613f6557600080fd5b8585015b83811015613f9d57803585811115613f815760008081fd5b613f8f8d89838a01016136ed565b845250918601918601613f69565b50965050506040870135925080831115613fb657600080fd5b5050613fc486828701613e85565b9150509250925092565b828152604060208201526000613790604083018461360c565b600080600080600060a08688031215613fff57600080fd5b853561400a81613d00565b945060208601356001600160401b038082111561402657600080fd5b61403289838a01613e85565b9550604088013591508082111561404857600080fd5b61405489838a01613e85565b945061406260608901613dd9565b9350608088013591508082111561407857600080fd5b50614085888289016136ed565b9150509295509295909350565b600080604083850312156140a557600080fd5b6140ae83613798565b915060208301356001600160401b038111156140c957600080fd5b6140d5858286016136ed565b9150509250929050565b60006020808301818452808551808352604092508286019150828160051b87010184880160005b8381101561394e57888303603f190185528151805184528781015188850152868101516001600160a01b03168785015260608082015160a082870181905291906141528388018261360c565b6080948501519790940196909652505094870194925090860190600101614106565b602080825282518282018190526000919060409081850190868401855b828110156141c05781518051855286810151878601528501518585015260609093019290850190600101614191565b5091979650505050505050565b600181811c908216806141e157607f821691505b602082108103610b1d57634e487b7160e01b600052602260045260246000fd5b634e487b7160e01b600052601160045260246000fd5b60006001820161422957614229614201565b5060010190565b601f82111561427a57600081815260208120601f850160051c810160208610156142575750805b601f850160051c820191505b8181101561427657828155600101614263565b5050505b505050565b81516001600160401b03811115614298576142986136a7565b6142ac816142a684546141cd565b84614230565b602080601f8311600181146142e157600084156142c95750858301515b600019600386901b1c1916600185901b178555614276565b600085815260208120601f198616915b82811015614310578886015182559484019460019091019084016142f1565b508582101561432e5787850151600019600388901b60f8161c191681555b5050505050600190811b01905550565b818103818111156134eb576134eb614201565b634e487b7160e01b600052603260045260246000fd5b828152604081016143778361384d565b8260208301529392505050565b60008154614391816141cd565b600182811680156143a957600181146143be576143ed565b60ff19841687528215158302870194506143ed565b8560005260208060002060005b858110156143e45781548a8201529084019082016143cb565b50505082870194505b5050505092915050565b60006144038287614384565b600160fd1b8082526144186001830188614384565b915080825261442a6001830187614384565b908152905061443c6001820185614384565b979650505050505050565b808201808211156134eb576134eb614201565b80820281158282048414176134eb576134eb614201565b60008261448e57634e487b7160e01b600052601260045260246000fd5b500490565b6020815260006137cf602083018461360c56fea2646970667358221220b0d087aa2994a2756d5e7e840e010757098832aa146e5abf338add5ac2ccf0d364736f6c63430008130033",
  "immutableReferences": {},
  "source": "// SPDX-License-Identifier: GPL-3.0\r\npragma solidity ^0.8.19;\r\n\r\ncontract Bookfood {\r\n\r\n    constructor(address payable  _beneficiary){\r\n       beneficiary= _beneficiary;\r\n    }\r\n\r\n    enum OrderStatus { Pending, Preparing, Delivered }\r\n    enum Payment  { Ewallet,Cash, CreditCard }\r\n\r\n    struct FoodCategory {\r\n        uint id;\r\n        string name;\r\n    }\r\n    \r\n    struct Restaurant {\r\n        uint id;\r\n        string name;\r\n        string houseNumber;\r\n        string street;\r\n        string ward;\r\n        string district;\r\n        string city;\r\n        address owner;\r\n    }\r\n\r\n    struct Food {\r\n        uint id;\r\n        string name;\r\n        uint restaurantId;\r\n        uint categoryId;\r\n        uint price;\r\n        bool isVegan;\r\n        bool isGlutenFree;\r\n        uint totalStars;\r\n        uint totalRatings;\r\n    }\r\n\r\n    struct Rating {\r\n        uint id;\r\n        uint foodId;\r\n        address user;\r\n        string review;\r\n        uint stars;\r\n    }\r\n\r\n    struct Order {\r\n        uint id;\r\n        address customer;\r\n        uint discount;\r\n        uint totalPrice;\r\n        OrderStatus status;\r\n        Payment payment;\r\n        bool isReviewed;\r\n        bool isPay;\r\n        string note;\r\n    }\r\n\r\n    struct DetailOrder {\r\n        uint foodId;\r\n        uint quantity;\r\n        uint price;\r\n    }\r\n\r\n    mapping(uint => Restaurant) public restaurants;\r\n    mapping(uint => Food) public foods;\r\n    mapping(uint => mapping(uint => Rating)) public ratings;\r\n    mapping(uint => uint) public ratingCountPerFood; \r\n    mapping(uint => Order) public orders;\r\n    mapping(uint => mapping(uint => DetailOrder)) public orderDetails; \r\n    mapping(uint => uint) public orderDetailCount;\r\n    mapping(uint => FoodCategory) public categories; \r\n    mapping(address => uint) public points;\r\n\r\n    address payable public beneficiary;\r\n    uint restaurantCount;\r\n    uint foodCount;\r\n    uint orderCount;\r\n    uint categoryCount;\r\n\r\n    event OrderStatusUpdated(uint orderId, address indexed customer, OrderStatus status);\r\n    event MessageSent(address indexed sender, address indexed receiver, string message);\r\n\r\n    function processPayment(uint _orderId) public payable {\r\n        Order storage order = orders[_orderId];\r\n        require(order.customer == msg.sender, \"Only order owner can pay\");\r\n        \r\n        uint amountToPay = order.totalPrice;\r\n        require(msg.value >= amountToPay, \"Insufficient payment\");\r\n        \r\n        beneficiary.transfer(amountToPay);\r\n        order.isPay=true;\r\n    }\r\n    \r\n    function addRestaurant(\r\n        string memory _name, \r\n        string memory _houseNumber, \r\n        string memory _street, \r\n        string memory _ward, \r\n        string memory _district, \r\n        string memory _city, \r\n        address _owner\r\n        \r\n    ) public {\r\n         require(_owner != address(0), \"Owner address cannot be zero\");\r\n        restaurantCount++;\r\n        restaurants[restaurantCount] = Restaurant(\r\n            restaurantCount, \r\n            _name, \r\n            _houseNumber, \r\n            _street, \r\n            _ward, \r\n            _district, \r\n            _city, \r\n            _owner\r\n        );\r\n    }\r\n\r\n    function addCategory(string memory _name) public {\r\n        categoryCount++;\r\n        categories[categoryCount] = FoodCategory(categoryCount, _name);\r\n    }\r\n    function addFood(\r\n        string memory _name, uint _restaurantId, uint _categoryId,\r\n        uint _price, bool _isVegan, bool _isGlutenFree\r\n    ) public {\r\n        require(restaurants[_restaurantId].id != 0, \"Restaurant does not exist\");\r\n        foodCount++;\r\n        foods[foodCount] = Food(\r\n            foodCount, _name, _restaurantId, _categoryId,\r\n            _price, _isVegan, _isGlutenFree, 0, 0\r\n        );\r\n    }\r\n\r\nfunction addRating(uint _idOrder, string[] memory _reviews, uint[] memory _stars) public {\r\n    require(_reviews.length == _stars.length, \"Mismatched array lengths\");   \r\n    require(orders[_idOrder].customer == msg.sender, \"Only the buyer can add a rating\");\r\n    require(orders[_idOrder].isReviewed == false, \"Only the buyer can add a rating\");\r\n    \r\n\r\n    for (uint i = 0; i < orderDetailCount[_idOrder]; i++) {\r\n        uint foodId = orderDetails[_idOrder][i+1].foodId; // Ly foodId t orderDetails\r\n        require(foodId != 0, \"DetailOrder does not exist\"); // Kim tra xem orderDetail c tn ti khng\r\n        require(_stars[i] >= 1 && _stars[i] <= 5, \"Stars must be between 1 and 5\");\r\n        \r\n        ratingCountPerFood[foodId]++;\r\n        uint newRatingId = ratingCountPerFood[foodId];\r\n        ratings[foodId][newRatingId] = Rating(newRatingId, foodId, msg.sender, _reviews[i], _stars[i]);\r\n\r\n        // Cp nht tng im nh gi\r\n        foods[foodId].totalStars += _stars[i];\r\n        foods[foodId].totalRatings++;\r\n    }\r\n    orders[_idOrder].isReviewed = true;\r\n}\r\n\r\n    \r\n    function placeOrder(Payment _payment,uint[] memory _foodIds, uint[] memory _quantities, bool UsePoint,string memory note) \r\n    public {\r\n        require(_foodIds.length > 0, \"Order must contain at least one food item\");\r\n        require(_foodIds.length == _quantities.length, \"Mismatched array lengths\");\r\n\r\n        uint totalPrice = 0;\r\n        orderCount++;\r\n\r\n\r\n        for (uint i = 0; i < _foodIds.length; i++) {\r\n            require(foods[_foodIds[i]].id != 0, \"Food does not exist\");\r\n\r\n            // Tnh tng gi tin\r\n            uint itemPrice = foods[_foodIds[i]].price * _quantities[i];\r\n            totalPrice += itemPrice;\r\n            orderDetailCount[orderCount]++;\r\n            uint itemIndex = orderDetailCount[orderCount];\r\n            orderDetails[orderCount][itemIndex] = DetailOrder(_foodIds[i], _quantities[i], itemPrice);\r\n        }\r\n\r\n        // p dng im thng nu c\r\n        uint discount = 0;\r\n        if (UsePoint) {\r\n            uint availablePoints = points[msg.sender] ;\r\n            if(availablePoints>50) availablePoints=50;\r\n            discount = totalPrice * availablePoints / 100; // Gim ti a 50%\r\n\r\n            points[msg.sender] -= availablePoints; \r\n        }\r\n        orders[orderCount] = Order(orderCount, msg.sender,discount, totalPrice-discount, OrderStatus.Pending,_payment,false,false,note);\r\n        points[msg.sender] += 1; \r\n    }\r\n\r\n    function updateOrderStatus(uint _orderId, OrderStatus _status) public {\r\n        require(orders[_orderId].id != 0, \"Order does not exist\");\r\n        require(uint(_status) > uint(orders[_orderId].status), \"Invalid status transition\");\r\n        \r\n        // Nu phng thc thanh ton l Ewallet th phi kim tra isPay\r\n        if (orders[_orderId].payment == Payment.Ewallet) {\r\n            require(orders[_orderId].isPay, \"Payment must be completed for Ewallet orders\");\r\n        }\r\n        \r\n        orders[_orderId].status = _status;\r\n        emit OrderStatusUpdated(_orderId,  orders[_orderId].customer,_status);\r\n    }\r\n\r\n    \r\n    function sendMessage(address _receiver, string memory _message) public {\r\n        emit MessageSent(msg.sender, _receiver, _message);\r\n    }\r\n    \r\n    function getAllRestaurants() public view returns (Restaurant[] memory) {\r\n        Restaurant[] memory allRestaurants = new Restaurant[](restaurantCount);\r\n        for (uint i = 1; i <= restaurantCount; i++) {\r\n            allRestaurants[i - 1] = restaurants[i];\r\n        }\r\n        return allRestaurants;\r\n    }\r\n\r\n    function getAllFoods() public view returns (Food[] memory) {\r\n        Food[] memory allFoods = new Food[](foodCount);\r\n        for (uint i = 1; i <= foodCount; i++) {\r\n            allFoods[i - 1] = foods[i];\r\n        }\r\n        return allFoods;\r\n    }\r\n\r\n    \r\n    function getAllCategory() public view returns (FoodCategory[] memory) {\r\n        FoodCategory[] memory allCate = new FoodCategory[](categoryCount);\r\n        for (uint i = 1; i <= categoryCount; i++) {\r\n            allCate[i - 1] = categories[i];\r\n        }\r\n        return allCate;\r\n    }\r\n\r\n\r\nfunction getOrdersBySender() public view returns (Order[] memory) {\r\n\r\n        uint count = 0;\r\n\r\n        // m s lng n hng ca sender\r\n        for (uint i = 1; i <= orderCount; i++) {\r\n            if (orders[i].customer == msg.sender) {\r\n                count++;\r\n            }\r\n        }\r\n\r\n        // To mng kt qu\r\n        Order[] memory senderOrders = new Order[](count);\r\n        uint index = 0;\r\n        for (uint i = 1; i <= orderCount; i++) {\r\n            if (orders[i].customer == msg.sender) {\r\n                senderOrders[index] = orders[i];\r\n                index++;\r\n            }\r\n        }\r\n\r\n        return senderOrders;\r\n    }\r\n\r\n\r\n    function getOrderDetails(uint _orderId) public view returns (DetailOrder[] memory) {\r\n        uint itemCount = orderDetailCount[_orderId];\r\n        DetailOrder[] memory items = new DetailOrder[](itemCount);\r\n\r\n        for (uint i = 0; i < itemCount; i++) {\r\n            items[i] = orderDetails[_orderId][i+1];\r\n        }\r\n\r\n        return items;\r\n    }\r\n\r\n    function getRatingsForFood(uint _foodId) public view returns (Rating[] memory) {\r\n        require(foods[_foodId].id != 0, \"Food does not exist\");\r\n\r\n        uint count = ratingCountPerFood[_foodId];\r\n        Rating[] memory foodRatings = new Rating[](count);\r\n        \r\n        for (uint i = 0; i < count; i++) {\r\n            foodRatings[i] = ratings[_foodId][i+1];\r\n        }\r\n        \r\n        return foodRatings;\r\n    }\r\n\r\n    function searchRestaurants(\r\n        string memory _keyword\r\n    ) public view returns (Restaurant[] memory) {\r\n        Restaurant[] memory tempResults = new Restaurant[](restaurantCount);\r\n        uint count = 0;\r\n\r\n        for (uint i = 1; i <= restaurantCount; i++) {\r\n            string memory fullLocation = string(\r\n                abi.encodePacked(\r\n                    restaurants[i].street, \" \", \r\n                    restaurants[i].ward, \" \", \r\n                    restaurants[i].district, \" \", \r\n                    restaurants[i].city\r\n                )\r\n            );\r\n\r\n            if (\r\n                (_contains(restaurants[i].name, _keyword) ||\r\n                _contains(fullLocation, _keyword))\r\n            ) {\r\n                tempResults[count] = restaurants[i];\r\n                count++;\r\n            }\r\n        }\r\n\r\n        // To mt mng ng kch thc  tr v\r\n        Restaurant[] memory results = new Restaurant[](count);\r\n        for (uint j = 0; j < count; j++) {\r\n            results[j] = tempResults[j];\r\n        }\r\n        return results;\r\n    }\r\n\r\n    function searchFood(\r\n        string memory _keyword\r\n    ) public view returns (Food[] memory) {\r\n        Food[] memory tempResults = new Food[](foodCount);\r\n        uint count = 0;\r\n\r\n        for (uint i = 1; i <= foodCount; i++) {\r\n            if (\r\n                (_contains(foods[i].name, _keyword) ||\r\n                _contains(categories[foods[i].categoryId].name, _keyword))\r\n            ) {\r\n                tempResults[count] = foods[i];\r\n                count++;\r\n            }\r\n        }\r\n\r\n        // To mt mng ng kch thc  tr v\r\n        Food[] memory results = new Food[](count);\r\n        for (uint j = 0; j < count; j++) {\r\n            results[j] = tempResults[j];\r\n        }\r\n        return results;\r\n    }\r\n\r\n    function _contains(string memory _str, string memory _keyword) internal pure returns (bool) {\r\n        bytes memory strBytes = bytes(_str);\r\n        bytes memory keywordBytes = bytes(_keyword);\r\n        \r\n        if (keywordBytes.length > strBytes.length) return false;\r\n\r\n        for (uint i = 0; i <= strBytes.length - keywordBytes.length; i++) {\r\n            bool found = true;\r\n            for (uint j = 0; j < keywordBytes.length; j++) {\r\n                if (strBytes[i + j] != keywordBytes[j]) {\r\n                    found = false;\r\n                    break;\r\n                }\r\n            }\r\n            if (found) return true;\r\n        }\r\n        return false;\r\n    }\r\n\r\n    function getAllOrders() public view returns (Order[] memory) {\r\n    Order[] memory allOrders = new Order[](orderCount);\r\n    for (uint i = 1; i <= orderCount; i++) {\r\n        allOrders[i - 1] = orders[i];\r\n    }\r\n    return allOrders;\r\n\r\n    // function filterFoods(\r\n    //     uint _minPrice, \r\n    //     uint _maxPrice, \r\n    //     uint _categoryId, \r\n    //     uint _minRating, \r\n    //     bool _isVegan, \r\n    //     bool _isGlutenFree\r\n    // ) public view returns (Food[] memory) {\r\n    //     Food[] memory tempFoods = new Food[](foodCount);\r\n    //     uint count = 0;\r\n\r\n    //     for (uint i = 1; i <= foodCount; i++) {\r\n    //         Food storage food = foods[i];\r\n    //         uint avgRating = (food.totalRatings > 0) ? (food.totalStars / food.totalRatings) : 0;\r\n\r\n    //         // Kim tra iu kin lc\r\n    //         bool matchesCategory = (_categoryId == 0 || food.categoryId == _categoryId);\r\n    //         bool matchesPrice = (food.price >= _minPrice && food.price <= _maxPrice);\r\n    //         bool matchesRating = (avgRating >= _minRating);\r\n    //         bool matchesVegan = (!_isVegan || food.isVegan);\r\n    //         bool matchesGlutenFree = (!_isGlutenFree || food.isGlutenFree);\r\n\r\n    //         if (matchesCategory && matchesPrice && matchesRating && matchesVegan && matchesGlutenFree) {\r\n    //             tempFoods[count] = food;\r\n    //             count++;\r\n    //         }\r\n    //     }\r\n\r\n    //     // To mng kt qu c kch thc ng\r\n    //     Food[] memory filteredFoods = new Food[](count);\r\n    //     for (uint j = 0; j < count; j++) {\r\n    //         filteredFoods[j] = tempFoods[j];\r\n    //     }\r\n\r\n    //     return filteredFoods;\r\n    // }\r\n\r\n}\r\n\r\n}",
  "sourcePath": "D:\\Bebank\\Bookfood\\frontend\\contracts\\Bookfood.sol",
  "compiler": {
    "name": "solc",
    "version": "0.8.19+commit.7dd6d404.Emscripten.clang"
  },
  "schemaVersion": "3.4.16",
  "updatedAt": "2025-03-14T01:49:23.100Z",
  "networkType": "ethereum",
  "devdoc": {
    "kind": "dev",
    "methods": {},
    "version": 1
  },
  "userdoc": {
    "kind": "user",
    "methods": {},
    "version": 1
  }
}